:020000040800F2
:10000000E82000206102000859240008CF230008DE
:10001000552400083F0400083F3700080000000096
:10002000000000000000000000000000A101000826
:100030006F05000800000000FD010008B73200084D
:100040007B0200087B0200087B0200087B0200089C
:100050007B0200087B0200087B0200087B0200088C
:100060007B0200087B0200087B0200087B0200087C
:100070007B0200087B0200087B0200087B0200086C
:100080007B0200087B0200087B0200087B0200085C
:100090007B0200087B0200087B0200087B0200084C
:1000A0007B0200087B0200087B0200087B0200083C
:1000B000993300087B0200087B0200087B020008DD
:1000C0007B0200087B0200087B0200087B0200081C
:1000D0007B0200087B0200087B0200087B0200080C
:1000E0007B0200087B0200087B0200087B020008FC
:1000F0007B0200087B0200087B0200087B020008EC
:100100007B020008A92400087B0200087B0200088B
:100110007B0200087B0200087B0200087B020008CB
:100120007B0200087B0200087B02000845040008EF
:100130007B0200087B0200087B0200087B020008AB
:100140007B0200087B0200087B0200087B0200089B
:100150007B020008550400087B0200087B020008AF
:100160007B0200087B0200087B0200087B0200087B
:100170007B0200087B0200087B02000800000000F0
:100180007B0200087B020008DFF810D000F01AF9AB
:100190000048004749550008AFF30080E8200020E0
:1001A0002C4B19680868B0E8F04F80F30988BFF35A
:1001B0006F8F4FF0000080F311887047000000003F
:1001C00008480068006880F308884FF0000080F35A
:1001D000148862B661B6BFF34F8FBFF36F8F00DF35
:1001E00000BF00BF08ED00E0DFF80C00016841F43B
:1001F00070010160704700BF88ED00E0EFF30980F7
:10020000BFF36F8F134B1A681EF0100F08BF20ED5D
:10021000108A20E9F04F106009B44FF0500080F3CD
:100220001188BFF34F8FBFF36F8F05F0CDFE4FF0F6
:10023000000080F3118809BC19680868B0E8F04F25
:100240001EF0100F08BFB0EC108A80F30988BFF3CE
:100250006F8F704710000020EFF30580704700009B
:100260000648804706480047FEE7FEE7FEE7FEE750
:10027000FEE7FEE7FEE7FEE7FEE7FEE78533000860
:10028000890100082DE9F05F0546002092469B4653
:1002900088460646814640241BE02846414647469C
:1002A000224600F07FF853465A46C01A914110D3B7
:1002B00011461846224600F066F82D1A67EB010831
:1002C0004F4622460120002100F05DF817EB00099F
:1002D0004E41201EA4F10104DFDC484631462A4687
:1002E0004346BDE8F09F40EA01039B0703D009E0C5
:1002F00008C9121F08C0042AFAD203E011F8013B12
:1003000000F8013B521EF9D27047D2B201E000F86A
:10031000012B491EFBD270470022F6E710B51346A9
:100320000A4604461946FFF7F0FF204610BDCAB240
:10033000401E10F8011F8A4202D00029F9D1002086
:100340007047421C10F8011B0029FBD1801A70472E
:1003500010B5002200E0521C835C8C5CA34201D1EA
:10036000002BF8D1D8B2E1B2401A10BD30B5044626
:100370000020034600E05B1C934203D2E05CCD5CAE
:10038000401BF8D030BD202A04DB203A00FA02F1ED
:10039000002070479140C2F1200320FA03F3194373
:1003A00090407047202A04DB203A21FA02F0002115
:1003B000704721FA02F3D040C2F120029140084375
:1003C00019467047064C074D06E0E06840F001030F
:1003D00094E8070098471034AC42F6D3FFF7D8FEF4
:1003E000B4620008D462000870B58C1810F8015B84
:1003F00015F0070301D110F8013B2A1106D110F8BE
:10040000012B03E010F8016B01F8016B5B1EF9D1C1
:100410002B0705D40023521E0DD401F8013BFAE747
:1004200010F8013BCB1A921C03E013F8015B01F8B2
:10043000015B521EF9D5A142D8D3002070BD00BF88
:10044000FEE7000010B5024800F0ACF810BD000057
:100450002818002010B5024800F0A4F810BD0000D4
:10046000881800200146087810381823B0FBF3F2F2
:100470000848805CC865032A05D908686FF309003D
:10048000001D886503E008686FF309008865886DC2
:10049000704700002C620008014600208A6A8B69C0
:1004A000CBB932B1012A0DD0022A03D0032A10D1D0
:1004B0000EE000BFCB6A03F08073B3F1807F00D100
:1004C000012007E0CB6AB3F1C07F00D1012001E039
:1004D00000E000BF34E08B69B3F5005F1AD132B1A0
:1004E000012A07D0022A03D0032A11D10AE000BF53
:1004F00001200EE0CB6A03F08073B3F1807F00D15E
:10050000012006E0CB6AB3F1C07F00D1012000E0FA
:1005100000BF15E032B1012A05D0022A04D0032A17
:100520000CD103E000BF00BF012008E0CB6A03F05C
:100530008073B3F1807F00D1012000E000BF00BFD5
:10054000704730B50468246824F4802405682C6062
:10055000046863608468402C04D10468A260046865
:10056000E16003E00468A1600468E26030BD7047A8
:1005700072B600BFFEE7014691F83500022803D0AD
:100580008020486501207047052081F83500086803
:10059000006820F001000A6810600020F3E70146BF
:1005A000486D7047F8B50446002000908C480068FC
:1005B0004FF41651B0FBF1F7A56D2E6894F85C105E
:1005C00008208840304098B12068006800F004009E
:1005D00070B12068006820F004002168086094F879
:1005E0005C1008208840A860606D40F001006065E4
:1005F00094F85C1001208840304068B12068406960
:1006000000F0800040B194F85C1001208840A860A0
:10061000606D40F00200606594F85C100420884032
:10062000304068B12068006800F0020040B194F8E2
:100630005C1004208840A860606D40F00400606594
:1006400094F85C1010208840304078B3206800682F
:1006500000F0080050B394F85C1010208840A860A7
:100660002068006800F4802080B12068006800F4F1
:10067000002028B9206CC8B12046216C884715E0BD
:10068000A06C98B12046A16C88470FE020680068F4
:1006900000F4807028B92068006820F00800216804
:1006A0000860206C10B12046216C884794F85C10DB
:1006B000202088403040002865D02068006800F085
:1006C000100000285FD094F85C1020208840A860BB
:1006D00094F83500052828D12068006820F016001D
:1006E000216808602068406920F080002168486126
:1006F000206C08B9A06C28B12068006820F00800C0
:100700002168086094F85C103F208840A8600120B0
:1007100084F8350000BF002084F8340000BF206D4D
:1007200010B12046216D8847F8BD2068006800F4AC
:10073000802080B12068006800F4002028B9606C37
:1007400010B12046616C88471DE0E06BD8B12046AF
:10075000E16B884717E02068006800F4807068B992
:100760002068006820F0100021680860012084F8EB
:10077000350000BF002084F8340000BFE06B10B1EA
:100780002046E16B8847606D38B3606D00F0010072
:10079000F0B1052084F835002068006820F00100E1
:1007A0002168086000BF0098401C0090B84200D942
:1007B00005E02068006800F001000028F3D100BFC8
:1007C000012084F8350000BF002084F8340000BF09
:1007D000E06C10B12046E16C884700BFA4E7000040
:1007E0000C0000202DE9F0410446002500F0D6F968
:1007F000074614B90120BDE8F081606A00B100BF6E
:10080000022084F8350000BF002084F8340000BFC7
:100810002068006820F00100216808600AE000F00C
:10082000BDF9C01B052805D920206065032084F888
:100830003500E0E72068006800F001000028EED1F4
:100840002068056821480540D4E901010843E168B2
:1008500008432169084361690843A1690843E169C4
:100860000843216A08430543606A042803D1D4E998
:100870000B0108430543206805602068456925F0A1
:100880000705606A0543606A04280DD1A06A054324
:10089000E06A48B12046FFF7FFFD28B140206065BF
:1008A000012084F83500A6E7206845612046FFF75F
:1008B000D9FD064694F85C103F208840B0600020C7
:1008C0006065012084F83500002094E73F8010F037
:1008D0002DE9F04704460D4616461F464FF0000826
:1008E000D4F8589000BF94F83400012802D10220B7
:1008F000BDE8F087012084F8340000BF94F835008B
:10090000012825D1022084F83500002060653B468F
:10091000324629462046FFF714FE94F85C103F202B
:100920008840C9F808002068006840F01600216877
:100930000860206C28B12068006840F00800216839
:1009400008602068006840F001002168086006E047
:1009500000BF002084F8340000BF4FF0020840467A
:10096000C6E7000070B5044600F018F906462546B3
:10097000681C10B104480078054400BF00F00EF96F
:10098000801BA842FAD370BD08000020F8B50246CB
:100990000B460025002400200021D6E0012606FA9F
:1009A00001F51E6806EA0504AC4274D11E7906F012
:1009B0000306012E04D01E7906F00306022E13D181
:1009C00090684F000326BE40B0434F00DE68BE4033
:1009D00030439060506801268E40B0431E79C6F3C4
:1009E00000168E40304350601E7906F00306032E39
:1009F00009D0D0684F000326BE40B0434F009E6828
:100A0000BE403043D0601E7906F00306022E13D19B
:100A1000CF0802F1200656F827004E07F70E0F26E2
:100A2000BE40B0434F07FF0E1E69BE403043CF08A3
:100A300002F1200646F8270010684F000326BE404A
:100A4000B0431E7906F003064F00BE4030431060ED
:100A50005E6806F44036002E76D000BF0026009671
:100A60003C4E366846F480463A4F3E603E46366815
:100A700006F48046009600BF00BF374E8F0856F838
:100A800027008E07370F0F26BE40B043334EB242C9
:100A900002D1002624E057E0314EB24201D10126B6
:100AA0001EE0304EB24201D1022619E02E4EB24273
:100AB00001D1032614E02D4EB24201D104260FE0ED
:100AC0002B4EB24201D105260AE02A4EB24201D194
:100AD000062605E0284EB24201D1072600E008268E
:100AE0008F073F0FBE4030431B4E8F0846F827004C
:100AF000224E3068A0435E6806F4801606B120439B
:100B00001E4E3060361D3068A0435E6806F4001645
:100B100006B12043194E361D3060184E361F30681E
:100B2000A0435E6806F4003606B12043134E361F1C
:100B30003060361F3068A0435E6806F4803606B128
:100B400020430E4E083E3060491C1029FFF426AFAA
:100B5000F8BD00004438024008380140000002405F
:100B60000004024000080240000C02400010024055
:100B70000014024000180240001C0240083C0140E2
:100B8000024613690B400BB1012000E000207047C2
:100B90000AB1816101E00B0483617047014800687C
:100BA00070470000000000200348006803490978EE
:100BB0000844014908607047000000200800002038
:100BC00010B50D48006840F400700B4908600846F5
:100BD000006840F4806008600846006840F4807057
:100BE0000860032000F0DCF80F2000F007F800F0A8
:100BF0005FF8002010BD0000003C02402DE9F041EC
:100C000088B004460027B84600BF00200190244861
:100C1000006840F00100224908600846006800F0C2
:100C20000100019000BF00BF02A903A800F08EF9E7
:100C3000069F1FB900F0B2F9054602E000F0AEF9D8
:100C400045001848B5FBF0F0A0F101084FF08040D6
:100C50001549086040F2E7311348C160C0F80480CC
:100C6000002101618160816101F06AF9064696B94F
:100C70000D4801F099F906466EB91C2000F042F8C3
:100C8000102C07D2002221461C2000F04BF8074808
:100C9000046000E00126304608B0BDE8F0810000A5
:100CA0004038024040420F00D411002004000020D0
:100CB00008B500BF002000901148006840F4804053
:100CC0000F4908600846006800F48040009000BFAB
:100CD00000BF00BF00200090081F006840F0805057
:100CE000091F08600846006800F08050009000BFAF
:100CF00000BF00220F21901E00F014F808BD000074
:100D00004438024001460846002809DB00F01F0372
:100D100001229A4043099B0003F1E023C3F800211C
:100D200000BF70472DE9F05F80460D46164600274C
:100D300002F018FD074639462A46334601F00700FF
:100D4000C0F1070ABAF1040F02D94FF0040A01E01A
:100D5000C0F1070AD14600F1040ABAF1070F02D226
:100D60004FF0000A01E0A0F1030AD4464FF0010A57
:100D70000AFA09FAAAF1010A0AEA020A0AFA0CFABC
:100D80004FF0010B0BFA0CFBABF1010B0BEA030B61
:100D90004AEA0B042146404602F0ECFCBDE8F09F15
:100DA00000BF00F00702064B19684FF6FF03194019
:100DB000044B0B4343EA0221014B196000BF70470B
:100DC0000CED00E00000FA0570B504460D460CB9C4
:100DD000012070BD5848006800F00700A84209D201
:100DE00055490D700846006800F00700A84201D080
:100DF0000120EEE7207800F0020002281DD12078C3
:100E000000F00400042805D14C48006840F4E0508C
:100E10004A490860207800F00800082805D14748B2
:100E2000006840F46040454908604448006820F08C
:100E3000F000A168084341490860207800F00100F3
:100E4000A8B36068012807D13C4808380068C0F39F
:100E50004040B8B90120BCE76068022802D0606851
:100E6000032807D1354808380068C0F3406048B906
:100E70000120AEE7314808380068C0F3400008B9E7
:100E80000120A6E72D48006820F0030061680843B0
:100E90002A490860FFF782FE064609E0FFF77EFE5A
:100EA000801B41F28831884202D9032091E707E094
:100EB0002248006800F00C006168B0EB810FEDD1B2
:100EC0001D48006800F00700A84209D91A490D70B2
:100ED0000846006800F00700A84201D0012078E72A
:100EE000207800F00400042807D11448006820F49A
:100EF000E050E168084311490860207800F00800DC
:100F0000082808D10D48006820F46040216940EAB3
:100F1000C1000A49086000F061F808490968C1F396
:100F20000311074A515CC84006490860064800683A
:100F3000FFF764FE00204CE7003C02400838024006
:100F4000346200080C000020040000200F22026020
:100F50000D4A126802F0030242600B4A126802F066
:100F6000F0028260084A126802F4E052C260064A47
:100F7000126802F46042D2080261044A126802F068
:100F800007020A607047000008380240003C024037
:100F900001480068704700000C00002000B5FFF712
:100FA000F7FF04490968C1F38221034A515CC84034
:100FB00000BD0000083802404462000800B5FFF799
:100FC000E7FF04490968C1F34231034A515CC84054
:100FD00000BD000008380240446200082DE9F047D7
:100FE000002400250026A1462548006800F00C00DA
:100FF00020B1042805D008283AD105E0DFF8849014
:1010000039E0DFF8849036E01D48001F006800F0EA
:101010003F041B48001F006800F4800078B11A48A4
:101020001749091F0968C1F38811A0FB0170014627
:10103000224600233846FFF725F905460EE0114801
:101040000F49091F0968C1F38811A0FB017001460F
:10105000224600233846FFF715F905460848001FC9
:101060000068C0F30140401C4600B5FBF6F902E001
:10107000DFF8109000BF00BF4846BDE8F0870000D1
:10108000083802400024F40040787D01F8B5044699
:101090000CB90120F8BD207800F00100002874D0C0
:1010A000F948006800F00C0004280DD0F6480068EC
:1010B00000F00C00082813D1F348001F006800F46A
:1010C0008000B0F5800F0BD1EF4808380068C0F3FE
:1010D0004040002859D06068002856D10120D9E747
:1010E00000BF6068B0F5803F08D1E7480838006865
:1010F00040F48030E449083908601EE06068B0F5CB
:10110000A02F0DD1E0480838006840F48020DE4967
:10111000083908600846006840F4803008600CE038
:10112000D9480838006820F48030D7490839086069
:101130000846006820F48020086000BF606890B115
:10114000FFF72CFD054606E0FFF728FD401B64284D
:1011500001D903209EE7CC4808380068C0F340401E
:101160000028F1D011E0FFF719FD054606E0FFF772
:1011700015FD401B642801D903208BE7C2480838BD
:101180000068C0F340400028F1D1207800F0020050
:1011900002285FD1BC48006800F00C0058B1BA4882
:1011A000006800F00C0008281CD1B748001F006838
:1011B00000F48000B0B9B44808380068C0F34000BB
:1011C00020B1E068012801D0012063E7AE4808386B
:1011D000006820F0F800216940EAC100AA490839F6
:1011E000086037E0E06800B30120A8490860FFF715
:1011F000D5FC054606E0FFF7D1FC401B022801D9CB
:10120000032047E7A04808380068C0F340000028E2
:10121000F1D09D480838006820F0F800216940EAC4
:10122000C10099490839086014E000209749086016
:10123000FFF7B4FC054606E0FFF7B0FC401B0228B0
:1012400001D9032026E7904808380068C0F3400021
:101250000028F1D1207800F0080008282CD160691E
:10126000A8B101208A490860FFF798FC054606E00E
:10127000FFF794FC401B022801D903200AE78248AB
:101280006C300068C0F340000028F1D014E000206A
:101290007F490860FFF782FC054606E0FFF77EFC09
:1012A000401B022801D90320F4E677486C3000681F
:1012B000C0F340000028F1D1207800F00400042899
:1012C00070D1002770483830006800F0805090B925
:1012D00000BF002000906C483830006840F080501B
:1012E0006949383108600846006800F08050009075
:1012F00000BF00BF01276748006800F48070B0B9E4
:101300006448006840F4807062490860FFF746FC5A
:10131000054606E0FFF742FC401B022801D90320E6
:10132000B8E65C48006800F480700028F2D000BF86
:10133000A068012808D154486830006840F00100D6
:101340005149683108601DE0A06805280DD14E485C
:101350006830006840F004004B4968310860084676
:10136000006840F0010008600CE047486830006801
:1013700020F001004449683108600846006820F008
:101380000400086000BFA068A8B1FFF707FC05468D
:1013900009E0FFF703FC401B41F28831884202D983
:1013A000032077E626E0384868300068C0F3400044
:1013B0000028EED013E0FFF7F1FB054608E0FFF749
:1013C000EDFB401B41F28831884201D9032061E6E0
:1013D0002D4868300068C0F340000028EFD1012F8D
:1013E00007D129483830006820F08050264938312C
:1013F000086000BFA069002845D02348006800F0BD
:101400000C0008285DD0A069022845D100201F49A2
:101410000866FFF7C3FB054606E0FFF7BFFB401B6E
:10142000022801D9032035E6174808380068C0F3C0
:1014300040600028F1D1D4E907010843616A40EA1D
:1014400081110122A06AC2EB500041EA00412C2028
:10145000005D41EA00600C49091F086001200B494A
:101460000866FFF79BFB054606E0FFF797FB401B6E
:10147000022801D903200DE6034808380068C0F3AC
:1014800040600028F1D049E008380240000047429F
:10149000800E474200700040002021490866FFF797
:1014A0007DFB054606E0FFF779FB401B022801D9CA
:1014B0000320EFE51B480068C0F340600028F2D12C
:1014C0002CE0A069012800D1E4E51648001D06685B
:1014D000A069012820D006F48001E06981421BD177
:1014E00006F03F01206A814216D147F6C0703040B5
:1014F000616AB0EB811F0FD106F440310122A06A6E
:10150000C2EB5000B1EB004F06D106F070612C2009
:10151000005DB1EB006F01D00120BBE50020B9E513
:10152000000047420038024070470000F0B589B023
:1015300004460E460027032084F83400606C03281C
:1015400020D0B6F5805F04D1A06B40F08050A0633E
:101550001CE0B6F5006F07D1204601F04EFE0546AF
:10156000A06B2843A06311E03EB9204601F011FEB4
:101570000546A06B2843A06308E0A06B40F0006024
:10158000A06303E0A06B40F08050A063A06B38B173
:10159000174821688863012084F83400012713E08C
:1015A00060680390A0680490E06805900696606902
:1015B0000790A069089006A807C88DE80700206872
:1015C00003A90EC900F078FF4FF40071206800F005
:1015D000EBFF054635B1064821688863A06B2843B8
:1015E000A0630127012084F83400384609B0F0BD1B
:1015F000FF0540007047000010B50246506E800F96
:101600000870506EC0F383604870506EC0F3016084
:101610008870506E000CC870B2F86400000A08713F
:1016200092F864004871906E000DC880906EC0F30F
:10163000034008726820805AC0F3C03048726820A6
:10164000805AC0F3803088726820805AC0F34030DE
:10165000C8726820805AC0F30030087300204873B5
:10166000506C002836D16820805A8005030DD06E5A
:1016700043EA90700861D06EC0F3C2600875D06E06
:10168000C0F302604875D06EC0F342508875D06ECA
:10169000C0F38240C875D06EC0F3C23008760869C6
:1016A000401C50650B7E506D03F007039B1C01240A
:1016B0009C4060435065087A00F00F030120984079
:1016C0009065D2E915035B0A5843D0654FF4007367
:1016D000136621E0506C012813D16820805C8006DD
:1016E000830AD06E43EA104008610869401C8302F7
:1016F0005365536DD3654FF400739365936D136613
:101700000AE02E4813689863906B40F08050906315
:10171000012082F8340010BD6C20805AC0F3803064
:1017200001F8190F6C20805AC0F3C61048706C2065
:10173000805C00F07F008870106FC00FC870106F61
:10174000C0F341700871106FC0F382604871106F70
:10175000C0F383508871106FC0F34050C8710020EF
:101760000872106FC0F3004048727020805AC0F3B6
:10177000C03088727020805AC0F38030C8727020E8
:10178000805AC0F3403008737020805AC0F3003094
:1017900048737020805AC0F3812088737020805A6B
:1017A000C0F30120C8737020805CC0F34600087449
:1017B0000120487419390020ADE70000FF05400002
:1017C0000246506C0860906C4860D06C8860106D68
:1017D000C860506D0861906D4861D06D8861106E71
:1017E000C86100207047F8B50446002000906946A3
:1017F000204601F0B6FC054615B1A06B2843A06356
:101800000098C0F343263046F8BD000070B504468A
:10181000256B2068406BC0F3C03030B105F0080084
:1018200018B1204601F078FCF8E02068406BC0F366
:101830000020002862D04FF48070216888632068FF
:10184000C06B4CF23A3188432168C8632068C06A93
:1018500020F001002168C86205F0080038B305F0E7
:10186000020010B905F0200050B1206800F0E0FF40
:1018700006462EB1A06B3043A0632046FFF7BAFEA8
:1018800040F23A5021688863012084F83400002037
:10189000206305F0010010B905F0020018B12046E0
:1018A00000F0A0FABAE0204600F09DFAB6E005F09C
:1018B00080000028B8D005F0200050B1206800F06A
:1018C000B7FF06462EB1A06B3043A0632046FFF75A
:1018D00091FE05F001000028A6D105F002000028C5
:1018E000A2D12068C06A20F008002168C8620120E7
:1018F00084F83400204600F076FA8FE02068406BD0
:10190000C0F3803030B105F0080018B1204601F076
:10191000A8FC83E02068406B40F23A21084008B1FF
:10192000012000E00020002878D02068406BC0F340
:10193000400018B1A06B40F00200A0632068406B2B
:10194000C0F3C00018B1A06B40F00800A06320688D
:10195000406BC0F3401018B1A06B40F02000A063B2
:101960002068406BC0F3001018B1A06B40F010006D
:10197000A0632068406BC0F3402018B1A06B40F01A
:101980000800A06340F23A70216888632068C06B49
:1019900040F23A3188432168C863206800F048FF6C
:1019A000A16B0843A06305F0080040B1012084F852
:1019B0003400002020632046FFF71CFE2EE005F0D7
:1019C000800000B305F0100010B905F0200050B100
:1019D0001348E16B0865E06BFEF7CDFD98B1E06B55
:1019E00001F0EDF91AE005F0010010B905F0020070
:1019F00050B10C48216C0865206CFEF7BCFD10B19D
:101A0000206C01F0AFF909E00020A063012084F808
:101A10003400002020632046FFF786FD70BD0000E3
:101A2000BF2D0008652D000810B504460CB9012033
:101A300010BD94F8340020B900202077204600F033
:101A400069F8032084F83400204600F00BF808B150
:101A50000120EDE70020A0632063012084F834001A
:101A60000020E5E770B58AB0044600200490059098
:101A70000690079008907620099007A807C88DE87F
:101A80000700206804A90EC900F016FD064616B12D
:101A900001200AB070BD00201C490860206800F0D9
:101AA00025FD01201949A039C1F8A0000220FEF748
:101AB00059FF204601F0CAFA05463DB1012084F8DD
:101AC0003400A06B2843A0630120E2E7204601F028
:101AD0003BFA05463DB1012084F83400A06B284351
:101AE000A0630120D5E74FF40071206800F05CFD91
:101AF00005464DB1064821688863A06B2843A06362
:101B0000012084F83400C4E70020C2E7A080254209
:101B1000FF05400010B586B0044600BF00200090CD
:101B20005548006840F40060534908600846006862
:101B300000F40060009000BF00BF00BF00200090D4
:101B40004D481438006840F004004B4914390860CF
:101B50000846006800F00400009000BF00BF00BF0E
:101B6000002000900846006840F008000860084621
:101B7000006800F00800009000BF00BF142101A819
:101B8000FEF7CAFB4FF4F8500190022002900C209F
:101B90000590012003900320049001A93748FEF727
:101BA000F5FE0420019001A93548FEF7EFFE354807
:101BB000354908604FF0006048600021324881607C
:101BC000C1604FF4806101618900416189008161D8
:101BD0002021C1614FF4403101620421416203219F
:101BE00081624FF40001C16289100163FEF7FAFDC2
:101BF00008B1FEF7BDFC00BF23482449086408462D
:101C00002149886300BF1F484830214908604FF0D0
:101C10000060486040211E4881600021C1604FF48F
:101C20008061016189004161890081612021C16178
:101C30004FF44031016204214162032181624FF47B
:101C40000001C16289100163FEF7CCFD08B1FEF707
:101C50008FFC00BF0E480D49C86308460C498863D5
:101C600000BF002205213120FFF75CF83120FFF78B
:101C700049F806B010BD0000443802400008024098
:101C8000000C0240586402402818002084170020ED
:101C9000881800202DE9F04387B004460F4691468E
:101CA0001D46C8463FB9A06B40F00060A06301200C
:101CB00007B0BDE8F08394F8340001287ED10020FD
:101CC000A06308EB0501E06D814205D9A06B40F0EF
:101CD0000070A0630120EBE7032084F834000020AB
:101CE0002168C8622068C06B40F22A31084321682D
:101CF000C8633848216CC8633748216CC864002029
:101D0000216C08650021206C8160206C00680068EF
:101D100020F0C000216C89680843216C09680860C4
:101D20006A029308226802F180013A46206CFEF7AD
:101D3000CFFD80B12068C06B20F495702168C86326
:101D4000264821688863A06B40F08040A063012092
:101D500084F83400ACE7012021490860606C012858
:101D600001D04FEA48284FF0FF30019068020290FE
:101D700090200390022004900020059001200690FE
:101D800001A9206800F06AFB012D07D98220206399
:101D90004146206800F070FC064606E08120206382
:101DA0004146206800F084FC064676B10B48216865
:101DB0008863A06B3043A063012000E007E084F853
:101DC000340000202063012072E7002070E7022029
:101DD0006EE700001D2D0008A92C0008FF0540003B
:101DE0008C852542704770472DE9F04387B0044643
:101DF000884691461D464F46B8F1000F07D1A06BAB
:101E000040F00060A063012007B0BDE8F08394F8C3
:101E10003400012874D10020A0637919E06D81425B
:101E200005D9A06B40F00070A0630120ECE703200F
:101E300084F8340000202168C8622068C06B40F23A
:101E40001A2108432168C8633848E16BC8633848E1
:101E5000E16BC8640020E16B0865606C012800D06C
:101E60007F02012D07D9A02020633946206800F0A9
:101E7000FDFC064606E0902020633946206800F00D
:101E800011FD064666B12B4821688863A06B30437C
:101E9000A063012084F83400002020630120B3E710
:101EA0000120254908604021E06B8160E06B0068FB
:101EB000006820F0C000E16B89680843E16B0968A5
:101EC000086069028B08216801F180024146E06BDD
:101ED000FEF7FEFCA8B12068C06B40F21A218843CF
:101EE0002168C863134821688863A06B40F0804074
:101EF000A063012084F8340000202063012083E7E0
:101F000011E04FF0FF3001906802029090200390A2
:101F10000020049005900120069001A9206800F09F
:101F20009DFA002070E702206EE70000AD2D00084A
:101F3000A92C0008FF0540008C852542704770479A
:101F400010B504460CB9012010BD94F83D0028B925
:101F5000002084F83C00204600F025F8022084F898
:101F60003D00211D206801F01FFA012084F8460081
:101F700000BF84F83E0001213F200155402001555B
:101F80004120015500BF00BF012084F842004320DA
:101F90000155442001554520015500BF012084F81A
:101FA0003D000020D0E77047014691F83D00012830
:101FB00001D001207047022081F83D000868C06808
:101FC00040F001000B68D8601A4B086898421BD09B
:101FD0000868B0F1804F17D0174B0868984213D0AB
:101FE000164B086898420FD0154B086898420BD0E2
:101FF000144B0868984207D0134B0868984203D0E6
:10200000124B086898420CD10868806800F00702FB
:10201000062A0CD00868006840F001000B681860C0
:1020200005E00868006840F001000B6818600020B7
:10203000C0E700000000014000040040000800402C
:10204000000C004000040140004001400018004026
:10205000704710B5044620680069C0F34000D8B14D
:102060002068C068C0F34000B0B16FF00200216882
:102070000861012020772068806900F0030018B112
:102080002046FFF7E5FF05E0204600F0ADF82046CA
:1020900000F0ABF80020207720680069C0F38000D2
:1020A000D8B12068C068C0F38000B0B16FF0040000
:1020B00021680861022020772068806900F4407060
:1020C00018B12046FFF7C4FF05E0204600F08CF869
:1020D000204600F08AF80020207720680069C0F3CD
:1020E000C000D8B12068C068C0F3C000B0B16FF0C4
:1020F000080021680861042020772068C06900F08A
:10210000030018B12046FFF7A3FF05E0204600F0CA
:102110006BF8204600F069F80020207720680069FD
:10212000C0F30010D8B12068C068C0F30010B0B18F
:102130006FF0100021680861082020772068C069CE
:1021400000F4407018B12046FFF782FF05E02046FA
:1021500000F04AF8204600F048F800202077206878
:10216000006900F0010058B12068C06800F001006B
:1021700030B16FF0010021680861204600F036F8A8
:1021800020680069C0F3C01058B12068C068C0F36F
:10219000C01030B16FF08000216808612046FFF761
:1021A000CDFE20680069C0F3801058B12068C06877
:1021B000C0F3801030B16FF0400021680861204604
:1021C00000F01DF820680069C0F3401058B1206885
:1021D000C068C0F3401030B16FF020002168086182
:1021E0002046FFF7ACFE10BD7047704710B504469F
:1021F0002068B0F1804F01D1FEF7D6FC10BD7047CA
:1022000010B504460CB9012010BDA06900B100E072
:1022100000BF94F83D0028B9002084F83C00204617
:1022200000F028F8242084F83D002068C06820F4DD
:1022300000502168C860204601F022F9206800693A
:1022400020F49040216808612068406920F02A004D
:10225000216848612068C06840F400502168C86067
:1022600000202064202084F83D0084F83E000020F7
:10227000CAE7000010B586B00446142101A8FEF795
:102280004BF81B492068884230D100BF00200090E5
:102290001848006840F010001649086008460068B9
:1022A00000F01000009000BF00BF00BF00200090B1
:1022B00010481438006840F001000E4914390860D5
:1022C0000846006800F00100009000BF00BF4FF416
:1022D000C06001900220029000200390032004902F
:1022E0000720059001A90448FEF750FB06B010BD79
:1022F0000010014044380240000002402DE9F84F30
:1023000004460E46174699464FF0000A94F83D00E1
:1023100020285AD106B117B90120BDE8F88F00BFB7
:1023200094F83C00012801D10220F6E7012084F84E
:102330003C0000BF00202064212084F83D00FEF70F
:102340002DFC8246A784E784A068B0F5805F04D1A5
:10235000206910B90025B04602E035464FF000086C
:1023600000BF002084F83C0000BF1BE05346002261
:1023700080212046CDF8009001F098F908B10320A3
:10238000CBE745B9B8F80000C0F308002168486001
:1023900008F1020803E02878216848606D1CE08C91
:1023A000401EE084E08C0028E0D15346002240210A
:1023B0002046CDF8009001F079F908B10320ACE790
:1023C000202084F83D000020A7E70220A5E700BFF9
:1023D000FEE7000008B500BF002000900E4800682E
:1023E00040F480000C4908600846006800F4800052
:1023F000009000BF00BF002205213B20FEF792FCA9
:102400003B20FEF77FFC002205214520FEF78AFCD9
:102410004520FEF777FC08BD3038024010B50B4868
:102420000B4908604FF4E1304860002108488160A2
:10243000C16001610C21416100218161C161FFF72F
:10244000DFFE08B1FEF794F810BD00000010014057
:10245000E016002000BFFEE700BFFEE710B5024611
:1024600000230868506248689062D1E90204204362
:102470000C6920434C6920430343D06A20F0F700E5
:102480001843D062002010BD01460869C0B27047F1
:102490000146086800F003007047024602F114008C
:1024A000431818687047000010B50248FFF7AEF9EE
:1024B00010BD0000841700200FB410B504460021A1
:1024C000DDE903021043059A1043069A1043079A68
:1024D0001043089A10430143606847F6FF62904337
:1024E00008436060002010BC5DF814FB0146032027
:1024F0000860002070470146D1F88000704710B591
:102500000246002308689060D1E901042043CC68AA
:1025100020430C6920430343D0686FF30B0018433A
:10252000D060002010BD02460868C2F8800000207C
:10253000704770B585B005460C4600943720019071
:1025400040200290002003904FF480600490694680
:102550002846FFF7D4FF41F288323721284600F0A1
:10256000DDF90646304605B070BD000070B585B097
:1025700005460C460B48204300902920019040203E
:102580000290002003904FF4806004906946284632
:10259000FFF7B5FF284600F0C9FA0646304605B0F9
:1025A00070BD00000000108070B585B005460C4677
:1025B00000941020019040200290002003904FF4DE
:1025C0008060049069462846FFF799FF41F28832FF
:1025D0001021284600F0A2F90646304605B070BD2D
:1025E00070B585B005460C46009406200190402049
:1025F0000290002003904FF48060049069462846C2
:10260000FFF77DFF41F288320621284600F086F967
:102610000646304605B070BD30B585B00446002092
:1026200000900190029003904FF4806004906946FE
:102630002046FFF764FF204600F050F90546284683
:1026400005B030BD30B585B004464FF4D57000906C
:102650000820019040200290002003904FF48060F9
:10266000049069462046FFF74AFF204600F0E6FA4C
:102670000546284605B030BD70B585B005460C4608
:1026800000941220019040200290002003904FF40B
:102690008060049069462846FFF731FF41F2883296
:1026A0001221284600F03AF90646304605B070BDC2
:1026B00070B585B005460C4600941120019040206D
:1026C0000290002003904FF48060049069462846F1
:1026D000FFF715FF41F288321121284600F01EF95C
:1026E0000646304605B070BDF0B585B006461446C6
:1026F0001D46009407200190402002900020039086
:102700004FF48060049069463046FFF7F8FE41F2CE
:1027100088320721304600F001F90746384605B0F7
:10272000F0BD30B585B00446002000900220019035
:10273000C0200290002003904FF48060049069460E
:102740002046FFF7DCFE204600F0BEF9054628468D
:1027500005B030BD70B585B005460C460094092023
:102760000190C0200290002003904FF480600490FC
:1027700069462846FFF7C3FE284600F0A5F906463D
:10278000304605B070BD30B585B0044600200090DD
:102790003320019040200290002003904FF480608D
:1027A000049069462046FFF7AAFE41F288323321A1
:1027B000204600F0B3F80546284605B030BD70B598
:1027C00085B005460C4600940D20019040200290F3
:1027D000002003904FF48060049069462846FFF77C
:1027E0008EFE41F288320D21284600F097F8064609
:1027F000304605B070BD70B585B005460C4600206A
:1028000000900320019040200290002003904FF49C
:102810008060049069462846FFF771FE2246032136
:10282000284600F0AFF90646304605B070BD0000FE
:1028300030B585B00446002000900C200190402067
:102840000290002003904FF4806004906946204677
:10285000FFF755FE044A0C21204600F05FF80546BC
:10286000284605B030BD000000E1F50570B585B023
:1028700005460C460094192001904020029000204B
:1028800003904FF48060049069462846FFF737FEB6
:1028900041F288321921284600F040F806463046B9
:1028A00005B070BD70B585B005460C460094182083
:1028B000019040200290002003904FF4806004902B
:1028C00069462846FFF71BFE41F288321821284648
:1028D00000F024F80646304605B070BD01460E48AB
:1028E0000068C0084FF47A73B0FBF3F041F288330C
:1028F00000FB03F200BF101EA2F1010202D14FF053
:1029000000407047486B00F080000028F3D0C520DD
:1029100088630020F5E700000C0000202DE9F0435B
:1029200005460F46904666480068C0084FF47A7125
:10293000B0FBF1F000FB08F900BFB9F10000A9F10C
:10294000010903D14FF00040BDE8F0836E6B06F043
:1029500045000028F1D006F400600028EDD1686B36
:1029600000F0040010B10420A863EDE7686B00F0EC
:10297000010010B10120A863E6E7C520A86328463E
:10298000FFF782FDB84201D00120DDE70021284693
:10299000FFF783FD04464B48204008B90020D3E7E9
:1029A00004F00040B0F1004F02D14FF00070CBE7CF
:1029B00004F08040B0F1804F01D14020C4E704F022
:1029C0000050B0F1005F01D18020BDE704F08050DD
:1029D000B0F1805F02D14FF48070B5E704F0006081
:1029E000B0F1006F02D14FF40070ADE704F08060E9
:1029F000B0F1806F02D14FF48060A5E704F08070E1
:102A0000B0F1807F02D14FF400609DE704F4000034
:102A1000B0F5000F02D14FF4805095E704F4800028
:102A2000B0F5800F02D14FF400508DE704F4001090
:102A3000B0F5001F02D14FF4804085E704F4801008
:102A4000B0F5801F02D14FF400407DE704F48020F0
:102A5000B0F5802F02D14FF4003075E704F4003058
:102A6000B0F5003F02D14FF480206DE704F48030D0
:102A7000B0F5803F02D14FF4002065E704F4004038
:102A8000B0F5004F02D14FF480105DE704F48040B0
:102A9000B0F5804F02D14FF4001055E704F4005018
:102AA000B0F5005F02D14FF480004DE704F008005C
:102AB000082801D1000547E74FF4803044E70000C3
:102AC0000C00002008E0FFFD10B501461648006824
:102AD000C0084FF47A74B0FBF4F041F2883400FB84
:102AE00004F300BF181EA3F1010302D14FF0004010
:102AF00010BD4A6B02F045000028F3D002F40060DC
:102B00000028EFD1486B00F0040010B10420886366
:102B1000EEE7486B00F0010010B101208863E7E7A1
:102B2000C52088630020E3E70C00002010B50146B3
:102B300013480068C0084FF47A74B0FBF4F041F217
:102B4000883400FB04F300BF181EA3F1010302D177
:102B50004FF0004010BD4A6B02F045000028F3D052
:102B600002F400600028EFD1486B00F0040010B1BF
:102B700004208863EEE7C52088630020EAE70000B0
:102B80000C0000202DE9F04304460F4690462A48E9
:102B90000068C0084FF47A71B0FBF1F041F288315F
:102BA00000FB01F900BFB9F10000A9F1010903D14F
:102BB0004FF00040BDE8F083666B06F0450000284A
:102BC000F1D006F400600028EDD1606B00F0040045
:102BD00010B10420A063EDE7606B00F0010010B1BC
:102BE0000120A063E6E72046FFF74EFCB84201D083
:102BF0000120DFE7C520A06300212046FFF74DFC40
:102C0000054605F4604020B9280CA8F80000002013
:102C1000D0E705F48040B0F5804F02D14FF400506A
:102C2000C8E705F40040B0F5004F02D14FF48050E2
:102C3000C0E74FF48030BDE70C00002010B501461E
:102C400018480068C0084FF47A74B0FBF4F041F201
:102C5000883400FB04F300BF181EA3F1010302D166
:102C60004FF0004010BD4A6B02F045000028F3D041
:102C700002F400600028EFD1486B00F0040010B1AE
:102C800004208863EEE7486B00F0010010B10120DA
:102C90008863E7E7486B00F0400008B14020886394
:102CA0000020DFE70C0000202DE9F0410646B46B60
:102CB0003046FDF774FC02282CD0206C476DE06B89
:102CC000D0F85480012F02D0B8F1010F1FD1124863
:102CD000216888632068C06B20F49D702168C863F8
:102CE000A06B40F08040A0632046FEF77CFD0546C7
:102CF000062D01D0052D05D12068FFF799FDA16BA8
:102D00000843A063012084F834000020206320469B
:102D1000FEF770FCBDE8F081FF05400070B5064687
:102D2000B46B206B82280AD12068FFF781FD05462D
:102D30002DB1A06B2843A0632046FEF75BFC206802
:102D4000C06A20F008002168C86240F23A50216849
:102D50008863012084F83400002020632046FFF7B8
:102D600041F870BD70B50546AC6B40F23A50216831
:102D700088632046FEF737FD0646012084F83400BC
:102D800000202063062E01D0052E05D12068FFF714
:102D90004FFDA16B0843A063A06B18B92046FEF756
:102DA000C3FB02E02046FEF725FC70BD0146886BA0
:102DB0000268D26B42F480720368DA63704770B5C0
:102DC0000546AC6B40F23A50216888632046FEF716
:102DD0000AFD0646012084F8340000202063062EF8
:102DE00001D0052E05D12068FFF722FDA16B084315
:102DF000A063A06B18B92046FEF796FB02E02046C0
:102E0000FEF7F8FB70BD2DE9F04389B004460F468C
:102E1000FDF7C4FE81464FF00008002001900290AB
:102E20003E4608212068FFF7BFFB05461DB1284636
:102E300009B0BDE8F0835022125B11042068FFF74F
:102E400078FB05460DB12846F2E74FF0FF300390BE
:102E50000820049030200590022006900020079062
:102E60000120089003A92068FFF7F8FA2068FFF70F
:102E70008AFC05460DB12846DAE71CE02068406B65
:102E800000F4001040B12068FFF735FB01A941F8BC
:102E9000280008F1010805E02068406B00F40050AC
:102EA00000B90EE0FDF77AFEA0EB0900401C10B956
:102EB0004FF00040BCE72068406B00F02A0000287B
:102EC000DCD000BF2068406B00F0080018B108207B
:102ED00021688863ACE72068406B00F0020018B1FD
:102EE000022021688863A3E72068406B00F020007F
:102EF00018B12020216888639AE740F23A5021688F
:102F0000886302980006029901F47F4140EA01209B
:102F1000029901F47F0140EA1120029940EA116010
:102F20003060361D01980006019901F47F4140EAA6
:102F30000120019901F47F0140EA1120019940EA42
:102F400011603060002073E730B58FB00446012077
:102F500003902068FFF79CFA18B94FF080600FB01B
:102F600030BD606C03281BD02068FFF7DAFB0546F4
:102F70000DB12846F3E700212068FFF78EFA60675D
:102F800004212068FFF789FAA06708212068FFF76D
:102F900084FAE0670C212068FFF77FFA802108514E
:102FA000606C032807D003A92068FFF724FC0546BE
:102FB0000DB12846D3E7606C032820D0BDF80C1073
:102FC00021655022125B11042068FFF7C3FB054600
:102FD0000DB12846C3E700212068FFF75EFA60665E
:102FE00004212068FFF759FAA06608212068FFF73E
:102FF00054FAE0660C212068FFF74FFA206704219D
:103000002068FFF74AFA010DE16404A92046FEF7A3
:10301000F3FA10B14FF08050A1E75020005B01049B
:103020000A4600232068FFF75FFB05460DB12846DE
:1030300095E7D4E90412A069CDE90012029094E862
:103040000F00FFF739FA002089E70000F8B50446C1
:1030500000200090002600272068FFF7DDFA0546D3
:103060000DB12846F8BD2068FFF7ECFA054645B1DA
:103070000021A1642068FFF7CFFA05461DB128465C
:10308000F0E70121A164A06C012808D1002120688B
:10309000FFF74FFA054615B14FF08050E2E71DE00B
:1030A00000212068FFF745FA05460DB12846D9E70B
:1030B00018492068FFF75AFA054615B14FF08050BD
:1030C000D0E700212068FFF7E8F90646012080EAF2
:1030D000D67080F001070098401C00904FF6FF71F9
:1030E0000098884201D2002FDAD04FF6FF71009885
:1030F000884202D34FF08070B4E706F08040B0F110
:10310000804F02D10120606401E000206064002053
:10311000A8E70000000010C12DE9F0410546AC6AA7
:10312000EF6AE7B14FF0000814E02868FFF7E3F911
:1031300006462670641C7F1E300A2070641C7F1EA9
:10314000300C2070641C7F1E300E2070641C7F1EAB
:1031500008F10108B8F1080FE7D3AC62EF62BDE8EF
:10316000F08170B504460D4615B94FF0006070BD92
:103170005022125B11042068FFF721FB06460EB1B6
:103180003046F4E700212068FFF787F92860002027
:10319000EDE77CB5044600200090019000212068F6
:1031A000FFF77BF900F00070B0F1007F02D14FF41F
:1031B00000607CBD69462046FFF725FE05460DB13F
:1031C0002846F6E7019800F4803098B15022125B4F
:1031D00011042068FFF7ADF905460DB12846E8E770
:1031E00000212068FFF7FCF905460DB12846E0E70D
:1031F0000020DEE74FF08060DBE77CB5044600206E
:103200000090019000212068FFF747F900F000705E
:10321000B0F1007F02D14FF400607CBD69462046CA
:10322000FFF7F1FD05460DB12846F6E7019800F4D9
:10323000802098B15022125B11042068FFF779F9C1
:1032400005460DB12846E8E702212068FFF7C8F9D6
:1032500005460DB12846E0E70020DEE74FF080602C
:10326000DBE7F8B505462C6A6E6A1EB300271DE041
:1032700020780090641C761E2078009941EA002096
:103280000090641C761E2078009941EA004000906E
:10329000641C761E2078009941EA00600090641C4E
:1032A000761E69462868FFF73EF97F1C082FDFD39A
:1032B0002C626E62F8BD10B54FF0E020006902F09C
:1032C00003FF012801D002F0E5FE10BD00B593B068
:1032D000302107A8FDF720F8142102A8FDF71CF8FB
:1032E00000BF002001902548006840F0805023492D
:1032F00008600846006800F08050019000BF00BFE1
:1033000000BF002001901E48006840F480401C4926
:1033100008600846006800F48040019000BF00BFCC
:103320000220079001200A9010200B9002200D909F
:1033300000210E9108210F91A821109102211191D5
:103340000421129107A8FDF7A1FE08B1FDF710F9BD
:103350000F20029002200390002004904FF4A05010
:1033600005904FF480500690052102A8FDF72CFD32
:1033700008B1FDF7FDF813B000BD00004038024071
:10338000007000400348006840F470000149086084
:103390007047000088ED00E010B50248FEF759FEC6
:1033A00010BD0000D411002010B50268294B9842CE
:1033B0000ED0B0F1804F0BD0274B984208D0274B4E
:1033C000984205D0264B984202D0264B984203D112
:1033D00022F070024B681A431E4B984220D0B0F185
:1033E000804F1DD01C4B98421AD01C4B984217D0CE
:1033F0001B4B984214D01B4B984211D01A4B984249
:103400000ED01A4B98420BD0194B984208D0194B4A
:10341000984205D0184B984202D0184B984203D1DD
:1034200022F44072CB681A4322F080034C6943EACD
:10343000040202608B68C3620B688362054B98428A
:1034400002D0084B984201D10B6903630123436109
:1034500010BD0000000001400004004000080040D2
:10346000000C0040000401400040014000440140C5
:103470000048014000180040001C004000200040AF
:103480002DE9F84F04462068006920F44050E168B7
:103490000843216808612169A068084361690843FD
:1034A000E169084300902068C06849F20C618843D4
:1034B000009908432168C8602068406920F4407082
:1034C000A16908432168486176492068884203D091
:1034D00075492068884203D1FDF770FD814602E0FE
:1034E000FDF75CFD8146E069B0F5004F6CD102202C
:1034F0006168A0FB015003461920A9FB007001463A
:103500002A463846FCF7BEFE6421B0FBF1F04FEAD4
:10351000001A02206168A0FB01510B461920A9FB8B
:1035200000712A463846FCF7ADFE834602206168EA
:10353000A0FB015003461920A9FB00712A4638461A
:10354000FCF7A0FE6421B0FBF1F000EBC00101EB41
:103550000010ABEB8000322101EBC0006421B0FB16
:10356000F1F000F0F8000AEB400A02206168A0FBCD
:10357000015003461920A9FB007001462A4638462F
:10358000FCF780FE834602206168A0FB01500346E1
:103590001920A9FB00712A463846FCF773FE642106
:1035A000B0FBF1F000EBC00101EB0010ABEB8000D1
:1035B000322101EBC0006421B0FBF1F000F0070004
:1035C0005044216888606AE004206168A0FB0150D3
:1035D00003461920A9FB007001462A463846FCF72D
:1035E00051FE824604206168A0FB01500346192069
:1035F000A9FB007001462A463846FCF743FE6421C9
:10360000B0FBF1F000EBC00101EB0010AAEB800071
:10361000322101EB00106421B0FBF1F000F0F00A60
:1036200004206168A0FB017003461920A9FB00512A
:103630003A462846FCF726FE6421B0FBF1F00AEB7F
:10364000001A04206168A0FB01510B461920A9FB58
:1036500000712A463846FCF715FE8346042061684F
:10366000A0FB015003461920A9FB007001462A4621
:103670003846FCF707FE6421B0FBF1F000EBC00117
:1036800001EB0010ABEB8000322101EB0010642154
:10369000B0FBF1F000F00F00504421688860BDE8F5
:1036A000F88F000000100140001401402DE9F041A6
:1036B00004460D4617469846069E34E0701C88B3B3
:1036C0002EB1FDF76BFAA0EB0800B0422BD900BF7A
:1036D00000BF21680C3151E8001F21F4D07021682F
:1036E0000C3141E80002002AF3D100BF00BF00BF47
:1036F0002168143151E8001F21F0010021681431C4
:1037000041E80002002AF3D100BF202084F83D00E8
:1037100084F83E0000BF002084F83C0000BF032076
:10372000BDE8F081FFE7206800682840A84201D189
:10373000012000E00020B842C0D00020F0E700BF28
:10374000FEE700000FB4054B10B503A9044A029828
:1037500000F034F810BC5DF814FB0000614F000865
:103760003401002002480068C0F3022070470000C6
:103770000CED00E010B5002804DB0A07130E054A23
:10378000135406E00A07140E034A00F00F031B1F30
:10379000D45410BD00E400E018ED00E002E008C8D9
:1037A000121F08C1002AFAD170477047002001E0BB
:1037B00001C1121F002AFBD1704700002DE9FF4F05
:1037C0008DB00F460546002606E025280BD0DDE922
:1037D0000F1290476D1C761C28780028F5D111B087
:1037E0003046BDE8F08F0024A246A1460122E949F7
:1037F00000E0044315F8013F203B02FA03F00842C1
:10380000F7D128782A2810D06FF02F022878A0F15D
:103810003001092914D80AEB8A0102EB410144F076
:10382000020400EB010A6D1CF0E701CF5FEA000A19
:1038300003D544F40054CAF1000A44F002046D1C9C
:1038400028782E2817D115F8010F44F004042A28EF
:103850000ED06FF02F022878A0F1300109290AD884
:1038600009EB890102EB410100EB01096D1CF2E754
:1038700057F8049B6D1C28786C280FD006DC4C2868
:1038800017D068280DD06A2814D104E0742810D00D
:103890007A280FD10DE044F400140AE044F48014B7
:1038A00001E044F440146978814202D104F58014A7
:1038B0006D1C6D1C28786E281ED00CDC632830D05F
:1038C00004DC00288BD0582811D19FE0642867D0F1
:1038D00069280CD164E073282DD004DC6F2872D0E5
:1038E000702804D194E075286ED078286DD0DDE979
:1038F0000F129047761C4BE1C4F30250022806D009
:10390000032809D0042801CF09D0066040E101CF87
:10391000F117C0E900613BE101CF068038E1067094
:1039200036E117F8040B8DF8000000208DF8010037
:10393000EB46012003E057F804BB4FF0FF3061076E
:103940004FF0000102D40DE008F10101884649451D
:103950000FDA8045F8DB1BF808100029F4D108E0E5
:1039600008F1010188468142FADB1BF808100029A2
:10397000F6D1DDE90F23AAEB08008146214600F0CD
:1039800031F9304400EB080604E0DDE90F121BF8C2
:10399000010B9047B8F10108F7D221464846F2E002
:1039A0000A21C4F302524FF0000B0891022A04D0FE
:1039B00001CFC117032A09D00AE0FF1D27F007072E
:1039C000F7E8020108E02CE01EE01FE000B2C1179A
:1039D000042A01D140B2C117021E71F1000206DAB9
:1039E0000023D0EB030063EB01012D2202E022054E
:1039F00004D52B228DF82420012203E0E20701D018
:103A00002022F7E7904653E00A210BE0102109E05D
:103A100010214FF0000B44F004044FF00809089106
:103A200003E008214FF0000B0891C4F30252022A70
:103A300004D001CF0021032A06D006E0FF1D27F0A5
:103A40000707F7E8020103E080B2042A00D1C0B200
:103A50004FF0000822072BD52A78702A07D0DDF80E
:103A600020C08CF0100C5CEA0B0C05D00EE040225C
:103A70008DF82420012208E050EA010306D030230B
:103A80008DF824308DF8252002229046089B83F083
:103A9000080353EA0B030BD150EA010201D162077C
:103AA00006D530228DF824204FF00108A9F1010934
:103AB0002A78582A04D038A20B9208AA0A920BE05E
:103AC0003AA2F9E75B46089AFCF7DCFB0B9B9B5C90
:103AD0000A9A521E0A92137050EA0102F2D10A9811
:103AE000ADEB000000F1200B600702D524F4803418
:103AF00001E04FF00109D94502DDA9EB0B0000E020
:103B0000002000EB0B0141440890AAEB010AE003FE
:103B100006D4DDE90F232146504600F063F8064441
:103B20004FF0000908E009A911F80900DDE90F12BA
:103B3000904709F10109761CC145F4DBE0030CD57F
:103B4000DDE90F232146504600F04CF8064404E01E
:103B5000DDE90F1230209047761C0899481E089026
:103B60000029F5DC08E00A980A990078491C0A91B6
:103B7000DDE90F129047761CBBF10001ABF1010BA0
:103B8000F1DC21465046DDE90F2300F019F8064428
:103B90006D1C21E6092801003031323334353637C7
:103BA0003839616263646566000000003031323389
:103BB0003435363738394142434445460000000029
:103BC0002DE9F041044600251E461746880404D41A
:103BD00005E039462020B0476D1C641EF9D5284603
:103BE000BDE8F0812DE9F041044600251E469046CF
:103BF000C80301D5302700E02027880404D505E05C
:103C000041463846B0476D1C641EF9D52846BDE8CC
:103C1000F081000010B50449044800F0B3FA0448EC
:103C200000F054FA10BD0000BC0000206C1700200A
:103C3000DC00002010B50449044801F003FB0448EF
:103C400000F044FA10BD0000F000002078170020BA
:103C50001801002010B50749074801F0FBFB074891
:103C600000F034FA0649074801F0F4FB064800F07A
:103C70002DFA10BD4C0000204417002080000020C9
:103C80005C00002058170020A80000202DE9F0411A
:103C9000044688460020E070401EE062414620460F
:103CA00001F0E4FD10B10420BDE8F08104F22E2003
:103CB00001F0ADFB074694F83050EB2D03D0E92D11
:103CC00001D0E82D43D14AF65520874208D1082279
:103CD00023A104F18200FCF749FB08B90020E3E7C7
:103CE00004F13B0001F093FB06463D20055D701E8C
:103CF000304060BBB6F5007F29DBB6F5007F26DCDF
:103D00002DB3681E284010BB04F13E0001F07FFB7C
:103D1000E8B14020005D401E012818D804F14100A0
:103D200001F075FB98B104F1430001F070FB8028AD
:103D300006DA04F1500001F05EFBB0F5803F06D3D7
:103D400004F1460001F063FB08B10020ACE74AF63D
:103D50005520874201D10220A6E70320A4E70000F6
:103D6000464154333220202000000000F0B50346C5
:103D70000D461E68986A021D680A7789B0FBF7F441
:103D800000BF02CA09B90020F0BD8C4200D202E097
:103D9000641A121DF5E700BF10682044F4E70246DC
:103DA000891E5069801E884201D8002070475389BF
:103DB000906A03FB0100F9E72DE9F0478246884647
:103DC000DAF80040B8F1000F06D1E76817B1606972
:103DD000B84215D8012713E04146504601F0CCF80F
:103DE0000546022D02D20120BDE8F087681C08B903
:103DF0002846F9E76069A84201D92846F4E7474612
:103E0000206908B90020EFE70026474518D17E1C3D
:103E10006069B04200D802263146504601F0ACF845
:103E20000546012D01D0681C08B92846DCE73DB1E4
:103E3000E568022D03D36069A84200D92F46002609
:103E4000E6B93E4600BF761C6069B04204D802263F
:103E5000BE4201D90020C7E73146504601F08CF838
:103E6000054605B909E0012D01D0681C08B92846AE
:103E7000BAE7BE42E7D10020B6E700BF4FF0FF32FD
:103E80003146204601F05CFD8146B9F1000F08D1B2
:103E9000B8F1000F05D032464146204601F050FDF2
:103EA0008146B9F1000F0DD1E660D4E90410801EFF
:103EB000814202D82069401E2061207940F0010033
:103EC000207107E0B9F1010F02D14FF0FF3000E09F
:103ED00001200646304687E72DE9F35F8946D9F889
:103EE0000080009800F1200520220B212846FCF7D5
:103EF0000CFA0020074606464FF0080B00BF30467C
:103F0000761C18F80040202C00DC4AE02F2C01D051
:103F10005C2C0AD100E0761C18F806002F28FAD095
:103F200018F806005C28F6D03BE02E2C01D05F4547
:103F30000BD3BBF10B0F01D02E2C02D00620BDE815
:103F4000FC9F08274FF00B0BD9E7204600F04AF8FA
:103F5000A8B13046761C18F800A0504600F05CF876
:103F600018B1ABF10100B84201D80620E7E73846A6
:103F70007F1C2C5438467F1C05F800A010E0214619
:103F800014A0FCF7D4F908B10620D8E7612C04DBB3
:103F90007A2C02DCA4F12000C4B238467F1C2C54D9
:103FA000ADE700BF08EB0600C9F800000FB9062016
:103FB000C5E72878E52801D105202870202C03DDED
:103FC00018F80600202801DC042000E00020E87238
:103FD0000020B4E72A2B2C3A3B3C3D3E5B5D7C2223
:103FE0003F7F000001460B48007888420FDC0948FB
:103FF0004078884201DB012070470648807888427B
:1040000005DC0448C078884201DB0120F4E7002089
:10401000F2E700004C62000801461048007988422F
:1040200019DC0E484079884201DB012070470B48BB
:104030008079884205DC0948C079884201DB01208B
:10404000F4E70648007A884205DC0448407A884252
:1040500001DB0120EAE70020E8E700004C620008ED
:1040600070B50546002411E00A4850F8240058B104
:10407000084951F8241008682946FCF769F918B96D
:10408000044850F8240070BD601CC4B2082CEBDB5F
:104090000020F8E72417002070B505462846FFF7F2
:1040A000DFFF044624B1606810B16068006810B991
:1040B0004FF0FF3070BD207B28B960680168204652
:1040C0008847012020730020F4E7000070B5044603
:1040D0001CB1206808B1606810B94FF0FF3070BDA6
:1040E000002510E0124850F8250050B1104A52F84F
:1040F000252021681068FCF72BF910B96FF0020039
:10410000EDE7681CC5B2082DECDB00210AE0084889
:1041100050F8210020B9064840F821400020DEE791
:10412000481CC1B20829F2DB6FF00100D7E700009C
:104130002417002070B505460E462846FFF790FF6D
:10414000044634B1606820B16068C06808B1207B63
:1041500010B94FF0FF3070BD60683146C26820462C
:104160009047F8E770B50446A5682846696888470F
:1041700070BD70B504460E46A56831462846AA684B
:10418000904770BD0160024A4260024A82607047F7
:1041900099410008CB41000810B586B0044621685B
:1041A000486800F081FF142101A8FCF7B5F82068E9
:1041B0000089019001200290002004902168486845
:1041C00001A9FCF7E3FB06B010BD2DE9F04106465E
:1041D0000D46306800F049F8002419E00020285509
:1041E000002711E0306800F017F8012805D1285D9C
:1041F000012101EB4000285504E0285D002141EA3F
:1042000040002855781CC7B2082FEBDB601CC4B2F5
:10421000052CE3DBBDE8F08170B504466422012182
:10422000204600F061F8002802DA4FF0FF3070BD40
:10423000232000F0C1FF2189606800F0D5FF05460A
:1042400064220021204600F04FF8002802DA4FF0E7
:10425000FF30ECE72846EAE770B504460D462189B1
:104260002A46606800F0C8FF70BD10B5044660685B
:10427000006820F44060616808606068006840F48D
:1042800080606168086000212046FFF7E5FF142088
:1042900000F08CFF01212046FFF7DEFF6068006818
:1042A00020F440606168086064220021204600F02C
:1042B0001BF8002802DA4FF0FF3010BD6422012104
:1042C000204600F011F8002802DA4FF0FF30F4E742
:1042D00064220021204600F007F8002802DA4FF09F
:1042E000FF30EAE700BFE8E770B504460D46164622
:1042F0000AE02189606800F077FFA84201D1002020
:1043000070BD012000F058FF301EA6F10106F0D16B
:10431000401EF5E72DE9F04104460E46D4F8008032
:104320000021204600F011F90546EDB9002700BF35
:104330004046A16901F09AFA054605B113E0E0692B
:104340000078E52802D0E069007820B9781C07469B
:10435000B04201D107E000270121204600F06FF8AC
:104360000546002DE4D000BF042D00D107252846C6
:10437000BDE8F0812DE9F04704468946204601F06A
:10438000DDFD10B10120BDE8F08749462046FFF76A
:1043900006FD0646E6624FF4007104F13000FBF7BB
:1043A000BBFF04F130080127002500E03D4460898F
:1043B000A84207D9721960783B46414600F07CF963
:1043C0000028F3D06089A84201D00120DBE700205B
:1043D000D9E72DE9F041044627680021204600F086
:1043E000B4F8054615B12846BDE8F08100BF38464F
:1043F000A16901F03BFA054605B11DE0E0690678C8
:104400000EB9042518E0E069C07A00F03F00A07101
:10441000E069C07A00F0080038B90B2204F12001ED
:10442000E069FBF7A3FF00B906E00021204600F099
:1044300006F80546002DDAD000BF2846D4E72DE95E
:10444000F041044688462768206900F12006B6F549
:10445000001F01D30020A061A06910B90420BDE8AD
:10446000F081C6F30800002845D1A069401CA06176
:10447000606938B93889B0EB561F3CD80020A0617C
:104480000420ECE77889401E00EA562098BB2046BD
:10449000616900F071FD0546012D01D80220DEE7BB
:1044A000681C08B90120DAE77869A8421DD8B8F17C
:1044B000000F03D10020A0610420D0E720466169ED
:1044C000FFF77AFC05460DB90720C8E7012D01D199
:1044D0000220C4E7681C08B90120C0E72946384615
:1044E000FFF748FF08B10120B9E765612946384662
:1044F000FFF755FCA0612661C6F3080107F1300003
:104500000844E0610020AAE770B50446266801214E
:104510002046FFF7FFFE0546ADB93046A16901F020
:10452000A5F905467DB92021E069FBF7F5FEE069B4
:10453000216A0160616A4160218D018194F82A102D
:1045400081720120F070284670BD2DE9F0410446CB
:104550000D462668B5F5001F02D205F01F0010B108
:104560000220BDE8F0812561A7681FB930780328D3
:1045700000DB776A47B93089B0EB551F01D80220BC
:10458000EFE7706AA0611CE070894FEA402811E0F3
:104590003946204600F0F0FC0746781C08B9012097
:1045A000DFE7022F02D37069B84201D80220D8E7B2
:1045B000A5EB08054545EBD239463046FFF7EFFB42
:1045C000A0616761A06908B90220CAE7A06900EB91
:1045D0005520A061C5F3080106F130000844E061F0
:1045E0000020BEE770B5044624B901F0BFFB0546C4
:1045F000284670BD0120FCE710B50346DBB931B198
:10460000012910D0022904D0032911D106E000208D
:1046100010E04FF40074146000200BE0064CE469D5
:104620001460002006E0044CA4691460002001E03E
:10463000042000BF00BF10BD081800202DE9F0477E
:1046400007460C4615461E464FF0000937BB04F0DE
:104650000300C8B1C84613E001222946104801F002
:10466000CBFB10B10120BDE8F0874FF400720C497C
:104670002046FBF738FE04F500746D1C08F10108B4
:10468000B045E9D30020EEE732462946204601F046
:10469000B3FB08B10120E6E74846E4E70420E2E77F
:1046A000E818002070B5044624B901F0BDFB0546AA
:1046B000284670BD0120FCE72DE9F04707460C466F
:1046C00015461E464FF0000937BB04F00300C8B181
:1046D000C84613E04FF4007221461048FBF703FE72
:1046E00029466D1C01220D4801F086FB10B1012006
:1046F000BDE8F08704F5007408F10108B045E9D37E
:104700000020F5E732462946204601F08FFB08B12C
:104710000120EDE74846EBE70420E9E7E81A00202E
:1047200038B50546284600F049FA04463CB96946C2
:10473000284601F091FC04460CB900202860204670
:1047400038BD38B504466946204601F085FC05466B
:104750000DB900202060284638BD0000F7B582B0B2
:1047600016460398019001A800F076FC0546002D3E
:1047700002DA0B2005B0F0BD0C4850F825400CB112
:1047800000202070029810B100200299087007499B
:10479000029841F825000EB90020EBE7002202A99B
:1047A00003A800F00FFF07463846E3E72C0100207E
:1047B0002DE9F74F8EB0044616461CB9092011B0FA
:1047C000BDE8F08F06F03F06324602A90FA800F0C0
:1047D000F9FE0546002D6FD10298039003A80F99AA
:1047E00000F06FFB05462DB99DF8370000F0800002
:1047F00000B1062506F01C00002855D045B1042D57
:1048000003D103A8FFF780FE054646F008060AE03C
:104810009DF8120000F0110008B1072503E006F032
:10482000040000B10825002D50D106F00800002832
:104830004CD05B4801900A9901F10E00019901F0FA
:1048400025FB0A9901F11600019901F01FFB0A9955
:10485000029800F0BDFD814620200A99C87200220E
:104860000A99029801F000FB0A9901F11C0000214D
:1048700001F00CFB01200299C870B9F1000F25D09E
:104880000298D0F82CA00022494603A801F0F4F8C1
:104890000546DDB95146029800F0E8FF0546A9F14A
:1048A00001000299C86011E085B99DF8120000F07E
:1048B000100010B1042509E05FE006F0020028B105
:1048C0009DF8120000F0010000B107254DB906F077
:1048D000080008B146F040060298C06A20620A98B3
:1048E0006062002D57D10A99029800F071FDA06016
:1048F0000A9901F11C0000F07EFDE0600020A0623A
:10490000029820600298C088A080267400206074FD
:10491000E06160614FF4007104F12C00FBF7FCFCD6
:1049200006F0200048B3E06838B3E06860610298A0
:1049300040894FEA402BA768D4F80C800CE0394638
:10494000204600F019FB0746012F00D80225781CED
:1049500000B90125A8EB0B080DB9D845EFD8A76120
:104960005DB9C8F3080040B139460298FFF717FA5D
:104970008246BAF1000F01D102250CE00AEB582063
:10498000E061E26902994878012304F12C01FFF704
:1049900055FE00B101250DB10020206028460EE72C
:1049A0000000215033B581B004460CB909203EBD4A
:1049B0000022694602A800F005FE05461DBB0098CE
:1049C00020602046029900F07CFA0546C5B92B20EC
:1049D000005D00F0800050B9A07900F0100028B10F
:1049E000E169009800F0F4FCA06000E005253DB905
:1049F0000098C088A08000212046FFF7A6FD05464C
:104A0000042D00D105250DB1002020602846CEE7F9
:104A10002DE9FF4F85B0044615469A46DDF818B0DB
:104A20000020CAF8000003A9204601F015FB0490FD
:104A3000049810B9607C049018B1049809B0BDE8DE
:104A4000F08F207C00F0010008B90720F6E76169CB
:104A5000E068401A01900198854200D9019DA8E0C4
:104A6000A08AC0F30800002874D103984089401E32
:104A7000616900EA5129B9F1000F1FD1606910B9CD
:104A8000A06802900CE0A06A28B120466169FFF797
:104A90006DF9029004E02046A16900F06DFA0290E1
:104AA0000298022802D202206074C7E70298401CD4
:104AB00010B901206074C1E70298A061A169039850
:104AC000FFF76DF9064616B902206074B6E74E444A
:104AD0004FEA5528B8F1000F29D009EB08000399D7
:104AE0004989884203D903984089A0EB09080399B2
:104AF0004878434632465946FFF7A0FD10B10120E1
:104B000060749BE7207C00F0800068B1E069801B46
:104B1000404509D2E169891B0BEB41204FF400723B
:104B200004F12C01FBF7DFFB4FEA482737E0E0698F
:104B3000B04220D0207C00F0800080B1E26903996F
:104B40004878012304F12C01FFF7B6FD18B10120CC
:104B5000607473E710E0207C00F07F0020740399FC
:104B600048780123324604F12C01FFF767FD10B1AC
:104B70000120607462E7E661A08AC0F30800C0F516
:104B80000077AF4200D92F46A08AC0F3080204F193
:104B90002C0011183A465846FBF7A5FB00BFED1B49
:104BA000DAF800003844CAF80000BB4460693844B1
:104BB0006061002D7FF454AF00203FE7F8B5044654
:104BC0006946204601F048FA0646002E42D1207C74
:104BD00000F0400000283DD0207C00F0800070B143
:104BE000E26900994878012304F12C01FFF764FD84
:104BF00008B10120F8BD207C00F07F002074164F22
:104C0000216A009800F032FE06461EBB656AE87A0B
:104C100040F02000E8722946A268206801F024F9DB
:104C200005F11C00E16801F031F9394605F1160083
:104C300001F02CF9002105F1120001F033F90120F7
:104C40000099C870009801F033F90646207C00F006
:104C5000BF0020743046CDE7000021502DE9FF4F02
:104C600083B0044615469B46049800900020CBF87C
:104C7000000001A9204601F0EFF90290029810B956
:104C8000607C029018B1029807B0BDE8F08F207CDC
:104C900000F0020008B90720F6E700BF6069284469
:104CA0006169884202D26069C0F1FF35C3E0A08A21
:104CB000C0F3080000287DD101984089401E616939
:104CC00000EA512ABAF1000F26D1606938B9A76805
:104CD00097B900212046FFF76FF807460CE0A06A5D
:104CE00028B120466169FFF741F8074604E02046F5
:104CF000A169FFF761F8074607B99FE0012F02D1CC
:104D000002206074C0E7781C10B901206074BBE712
:104D1000A761A06800B9A760207C00F0800078B18E
:104D2000E26901994878012304F12C01FFF7C4FCE2
:104D300010B101206074A7E7207C00F07F00207490
:104D4000A1690198FFF72BF8064616B90220607496
:104D50009AE756444FEA5529B9F1000F2BD00AEBD8
:104D6000090001994989884203D901984089A0EB3B
:104D70000A09019948784B4632460099FFF79CFC96
:104D800010B1012060747FE7E069801B48450ED2B6
:104D9000E069801B009A02EB40214FF4007204F19D
:104DA0002C00FBF7A0FA207C00F07F0020744FEA73
:104DB00049282BE013E0E069B0420FD0E168606958
:104DC00088420BD2019948780123324604F12C0124
:104DD000FFF734FC10B10120607455E7E661A08A4A
:104DE000C0F30800C0F50078A84500D9A846A18AFC
:104DF000C1F3080204F12C01501842460099FBF758
:104E000072FA207C40F08000207400BFA5EB0805FA
:104E1000DBF800004044CBF80000009840440090CC
:104E2000606940446061E1686069884201D96069F5
:104E300000E0E068E060002D7FF439AF00BF207C27
:104E400040F04000207400201EE72DE9FF41074696
:104E50000D4600213846FEF719FF0646022E06D001
:104E6000032E00D21DB9304604B0BDE8F08100BF6A
:104E700000240AE007F5F77101EB041101F10800C5
:104E800000F0B9FA4DF82400641C042CF2D30DB1E3
:104E9000681E00E00020044600BF5DF8240028B131
:104EA0005DF824103846FEF7F1FE00E003200646C8
:104EB0002DB9022E03D3601C04460428EDD33046DE
:104EC000D2E72DE9F3410446276802E00198401C2F
:104ED0000190019800782F28F8D0019800785C287C
:104EE000F4D00020A06001980078202808D280210A
:104EF0002B20015500212046FFF727FB05462CE01B
:104F000000BF01A92046FEF7E7FF054605B123E0F3
:104F10002046FFF75EFA05462B20065D3DB1042DC5
:104F200004D100BF06F0040000B9052514E006F026
:104F3000040000B110E0A07900F0100008B90525C8
:104F40000AE0208AC0F3080207F130001118384641
:104F500000F03EFAA060D4E700BF2846BDE8FC811F
:104F600013B50C460A23012269460248FDF7C6F92B
:104F700000981CBDE01600202DE9F04781460C4644
:104F8000D9F80050022C02D36869A04202D84FF031
:104F900001085EE04FF0FF382878012804D002288D
:104FA0002CD0032851D13CE0264606EB5606286A51
:104FB00000EB5621284600F059FC00B148E030468D
:104FC000761CC0F3080105F13000475C286A00EB4D
:104FD0005621284600F04AFC00B139E0C6F308012A
:104FE00005F13000405C47EA002704F0010008B1F9
:104FF000380901E0C7F30B00804629E0286A00EB7E
:105000001421284600F032FC00B121E040F2FF11EB
:1050100001EA440205F13001501800F0F8F9804629
:1050200016E0286A00EBD411284600F01FFC00B1FE
:105030000EE040F2FF1101EA840205F13001501840
:1050400000F0D9F920F0704802E04FF0010800BFED
:1050500000BF4046BDE8F08770B504464FF0FF3012
:1050600026683146324601B970BD00BF12F8013BD7
:10507000212B01D33A2BF9D13A2B11D101250E78EE
:10508000302E08DB0E78392E05DC8E1C964202D1BC
:105090000E78A6F13005012D01DA28462260E3E7FB
:1050A000002000BFE0E7000008B5394988420FD171
:1050B00000BF002100913749096841F00101354ADC
:1050C00011601146096801F00101009100BF5EE026
:1050D000314988420FD100BF002100912D49096854
:1050E00041F002012B4A11601146096801F00201EA
:1050F000009100BF4BE0294988420FD100BF002139
:1051000000912449096841F00401224A11601146C6
:10511000096801F00401009100BF38E0204988428D
:105120000FD100BF002100911A49096841F0080120
:10513000184A11601146096801F00801009100BF8A
:1051400025E0184988420FD100BF00210091114984
:10515000096841F010010F4A11601146096801F019
:105160001001009100BF12E00F4988420FD100BF2B
:10517000002100910749096841F02001054A1160AA
:105180001146096801F02001009100BF00BF08BD71
:105190000000024030380240000402400008024093
:1051A000000C0240001002400014024010B50446FA
:1051B0002046FBF7D7FB10BD10B5084B5968084BCC
:1051C0001B68084CB3FBF4F303FB00F200BF034B76
:1051D0005B685B1A9342FAD310BD0000001000E038
:1051E0000C00002040420F0070B504460D462946D1
:1051F0002046FBF7C5FC70BD2DE9F04106460F4681
:1052000015460DB1012400E00024224639463046FF
:10521000FBF7BEFCBDE8F08170B50446A5682846E2
:105220006968884770BD70B505460E46AC6816B90A
:105230002046A1688847206800F10E01284600F04A
:10524000BBF870BD0160024A4260024A826070474A
:10525000595200089552000810B586B004462168DE
:105260004868FFF721FF142101A8FBF755F82068D3
:1052700000890190002002902168486801A9FBF78D
:1052800085FB0020216888722168086121684873C5
:1052900006B010BD70B50446226811895068FFF74A
:1052A000A3FF05462068C07A05280ED2DFE800F08B
:1052B000030E264250002068807AA84205D10120C2
:1052C0002168C87200202168086171E02068807A36
:1052D000A84205D000202168C872216808610CE04E
:1052E00020680069401C21680861032805D302205A
:1052F0002168C87200202168086159E02068807A1E
:10530000A84209D004202168C872002021680861E1
:105310000220216808730CE020680069401C2168A5
:105320000861642805D303202168C8720020216821
:1053300008613DE02068807AA84208D004202168F6
:10534000C8720320216808730020216808612FE0DB
:105350002068807AA84207D12068007B2168C87243
:1053600000202168086122E020680069401C216853
:10537000086103281BD32068007B022802D0032881
:1053800008D103E001202168487303E0022021686E
:10539000487300BF00BF0020216808612168C872FF
:1053A0002068407B2168887300202168487300BF13
:1053B00000BF2068807B70BD70B505460C46207824
:1053C00028B1214628462A6990470020207070BDE8
:1053D00070B505460C4604F11A0000F018F80646B0
:1053E0002878032805D104F1140000F010F846EAEB
:1053F0000046304670BD0146C8788A7842EA0020EF
:105400004A7842EA00200A7842EA002070470146C2
:1054100048780A7842EA0020704770B50446A568CB
:1054200028466968884770BD70B506460C46B06866
:1054300005461CB92846A96888470AE0012C03D113
:105440002846E968884704E0032C02D128462969E8
:10545000884770BD0160044A4260044AC260044A41
:105460008260044A0261704779540008B55400080C
:10547000E15400081F55000810B586B004462168A5
:105480004868FFF711FE142101A8FAF745FF2068CC
:105490000089019001200290002004902168486852
:1054A00001A9FBF773FA2268D17A104600F02EF8B2
:1054B00006B010BD10B504462068807A012807D1D7
:1054C0000021206800F022F800202168087306E01F
:1054D0000121206800F01AF801202168087310BD2E
:1054E00010B504462068807A012807D10121206880
:1054F00000F00CF801202168087306E00021206804
:1055000000F004F800202168087310BD70B504464F
:105510000D4621892A466068FFF76EFE70BD10B502
:1055200004462068007B38B100212068FFF7EEFFB9
:1055300000202168087306E001212068FFF7E6FFDC
:1055400001202168087310BDFBF73AFBFDF7BEFE92
:10555000FCF764FFFCF73EFFFEF77CFB0FA0FEF7B5
:105560009BFD10A0FEF798FDFEF754FB0FA0FEF781
:1055700093FDFEF75FFB0FA0FEF78EFD0FA0FEF779
:10558000E1F8012105A0FEF7D5FD05E000F0C2FA23
:1055900042F21070FBF7E6F9F8E700006C65643141
:1055A00000000000626565703100000064687431BD
:1055B000310000006B6579310000000068656C6C9B
:1055C0006F0D0A002DE9F74F84B0002105980160A6
:1055D0000498FFF741FD03900398002803DA0B209D
:1055E00007B0BDE8F08F9C49039851F820400CB9F2
:1055F0000C20F5E705980460069800F0FE00069080
:10560000207878B16078FFF74DF8074607F0010081
:1056100040B9069820B107F0040008B10A20DFE77E
:105620000020DDE700202070039860706078FEF7AE
:10563000D9FF074607F0010008B10320D0E706981C
:1056400020B107F0040008B10A20C9E70021204674
:10565000FFF7FBFB0546042D01D10120C0E7022D19
:1056600001D30D20BCE7D4F82C9004F13B00FFF7E8
:10567000CEFEB0F5007F01D00D20B1E704F1460069
:10568000FFF7C5FE064626B904F15400FFF7B3FE46
:105690000646A6614020005DA070A078012804D0D5
:1056A000A078022801D00D209AE7A07846433D203B
:1056B000005D6081608918B16089411E084008B1B1
:1056C0000D208DE704F14100FFF7A1FE2081207A33
:1056D00000F00F0008B10D2082E704F14300FFF74E
:1056E00096FE8246BAF1000F04D104F15000FFF794
:1056F00082FE824604F13E00FFF789FE8346BBF13D
:10570000000F01D10D206BE70BEB0600218900EBA8
:10571000111002900298824501D20D2060E7029894
:10572000AAEB00006189B0FBF1F8B8F1000F01D1DC
:105730000D2055E700254948804500D803254FF640
:10574000F570804500D8022540F6F570804500D8F8
:1057500001250DB90D2043E708F102006061C4F88E
:105760001C9009EB0B00206202984844A062032DB4
:1057700013D104F15A00FFF74AFE08B10D202FE7BC
:10578000208908B10D202BE704F15C00FFF733FE00
:10579000606260698000019014E0208908B90D20E2
:1057A0001EE7206A30446062022D02D16069400029
:1057B00007E0207D00F00100616901EB410100EB91
:1057C00051000190A169019800F2FF10B1EB502F38
:1057D00001D20D2004E74FF0FF302061E06080200F
:1057E0002071032D2DD104F16000FFF710FE012878
:1057F00027D109F10101204600F038F808BB00204C
:10580000207104F22E20FFF702FE4AF6552188424D
:1058100017D104F13000FFF7EEFD1149884210D195
:1058200004F50570FFF7E7FD0E49884209D104F53C
:105830000670FFF7E0FD206104F50770FFF7DBFD60
:10584000E060257008480088401C80B20649088046
:10585000E0800020C4E600002C010020F5FFFF0FCF
:1058600052526141727241613001002070B50446AC
:105870000D460026E06AA84210D0204600F05EFBEC
:1058800006465EB9607801232A4604F13001FEF72E
:10589000D5FE10B14FF0FF350126E562304670BDF0
:1058A00070B505460E4634780BA0FDF74BFF01227C
:1058B00021460CA02B68FDF745FF012C04D10321E4
:1058C00010A0FEF737FC05E0022C03D103210DA048
:1058D000FEF730FC70BD00006C616C616C610D0AFC
:1058E000000000006576743D25642053484F5254F3
:1058F0005F50524553533D2564206465763D2573C2
:105900000D0A00006C656431000000000A49096856
:10591000096809B9012100E0002121B14FF0FF31F0
:10592000064A116006E004490968C968C868034A64
:105930004168116070470000140000204000002002
:105940002DE9F04704460D4616464FF00209022D98
:1059500074D36069A84271D92078012804D0022844
:1059600049D003280DD15EE02F4607EB5707206A88
:1059700000EB57212046FFF779FF8146B9F1000F70
:1059800000D075E038467F1CC0F3080104F13000F8
:1059900001EB000805F0010028B1F1B298F8000011
:1059A00061F31F1000E0304688F800000120E0702D
:1059B000206A00EB57212046FFF758FF8146B9F1D6
:1059C000000F00D054E0C7F3080104F1300001EBF0
:1059D000000805F0010010B1C6F3071006E098F8C2
:1059E000000000F0F000C6F30321084388F800002F
:1059F0000120E0703CE0206A00EB15212046FFF713
:105A000035FF8146B9F1000F00D031E0B1B240F26C
:105A1000FF1202EA450304F13002981800F042FA3E
:105A20000120E07024E0206A00EBD5112046FFF74A
:105A30001DFF8146B9F1000F01D019E019E040F2D5
:105A4000FF1101EA850204F130015018FFF7D3FC81
:105A500066F31B00064640F2FF1101EA850204F1DD
:105A600030015018314600F011FA0120E07000BFFB
:105A700000BF4846BDE8F0872DE9F04781460E4655
:105A800017464FF00008D9F80040022E02D3606993
:105A9000B04202D80220BDE8F08767B100BF4FF0E6
:105AA000FF3239462046FFF74BFF8046B8F1000F22
:105AB00001D04046EFE700BF31464846FFF75CFAA9
:105AC000054605B922E0012D01D10220E3E7681C5B
:105AD00008B90120DFE7002231462046FFF730FFFA
