:020000040800F2
:100000003010002061020008D123000847230008B7
:10001000CD230008DF030008B73600080000000009
:10002000000000000000000000000000A101000826
:100030000F05000800000000FD0100082F32000835
:100040007B0200087B0200087B0200087B0200089C
:100050007B0200087B0200087B0200087B0200088C
:100060007B0200087B0200087B0200087B0200087C
:100070007B0200087B0200087B0200087B0200086C
:100080007B0200087B0200087B0200087B0200085C
:100090007B0200087B0200087B0200087B0200084C
:1000A0007B0200087B0200087B0200087B0200083C
:1000B000113300087B0200087B0200087B02000865
:1000C0007B0200087B0200087B0200087B0200081C
:1000D0007B0200087B0200087B0200087B0200080C
:1000E0007B0200087B0200087B0200087B020008FC
:1000F0007B0200087B0200087B0200087B020008EC
:100100007B020008212400087B0200087B02000813
:100110007B0200087B0200087B0200087B020008CB
:100120007B0200087B0200087B020008E503000850
:100130007B0200087B0200087B0200087B020008AB
:100140007B0200087B0200087B0200087B0200089B
:100150007B020008F50300087B0200087B02000810
:100160007B0200087B0200087B0200087B0200087B
:100170007B0200087B0200087B02000800000000F0
:100180007B0200087B020008DFF810D000F0EAF8DC
:100190000048004729430008AFF3008030100020DA
:1001A0002C4B19680868B0E8F04F80F30988BFF35A
:1001B0006F8F4FF0000080F311887047000000003F
:1001C00008480068006880F308884FF0000080F35A
:1001D000148862B661B6BFF34F8FBFF36F8F00DF35
:1001E00000BF00BF08ED00E0DFF80C00016841F43B
:1001F00070010160704700BF88ED00E0EFF30980F7
:10020000BFF36F8F134B1A681EF0100F08BF20ED5D
:10021000108A20E9F04F106009B44FF0500080F3CD
:100220001188BFF34F8FBFF36F8F04F0C7F94FF002
:10023000000080F3118809BC19680868B0E8F04F25
:100240001EF0100F08BFB0EC108A80F30988BFF3CE
:100250006F8F70471C020020EFF30580704700008D
:100260000648804706480047FEE7FEE7FEE7FEE750
:10027000FEE7FEE7FEE7FEE7FEE7FEE7FD320008E9
:10028000890100082DE9F05F0546002092469B4653
:1002900088460646814640241BE02846414647469C
:1002A000224600F04FF853465A46C01A914110D3E7
:1002B00011461846224600F036F82D1A67EB010861
:1002C0004F4622460120002100F02DF817EB0009CF
:1002D0004E41201EA4F10104DFDC484631462A4687
:1002E0004346BDE8F09FD2B201E000F8012B491E61
:1002F000FBD270470022F6E710B513460A460446C3
:100300001946FFF7F0FF204610BD10B5002200E0AF
:10031000521C835C8C5CA34201D1002BF8D1D8B273
:10032000E1B2401A10BD202A04DB203A00FA02F1A3
:10033000002070479140C2F1200320FA03F31943D3
:1003400090407047202A04DB203A21FA02F0002175
:10035000704721FA02F3D040C2F1200291400843D5
:1003600019467047064C074D06E0E06840F001036F
:1003700094E8070098471034AC42F6D3FFF708FF23
:10038000244800084448000870B58C1810F8015B38
:1003900015F0070301D110F8013B2A1106D110F81E
:1003A000012B03E010F8016B01F8016B5B1EF9D122
:1003B0002B0705D40023521E0DD401F8013BFAE7A8
:1003C00010F8013BCB1A921C03E013F8015B01F813
:1003D000015B521EF9D5A142D8D3002070BD00BFE9
:1003E000FEE7000010B5024800F0ACF810BD0000B8
:1003F000700B002010B5024800F0A4F810BD0000FA
:10040000D00B00200146087810381823B0FBF3F217
:100410000848805CC865032A05D908686FF309009D
:10042000001D886503E008686FF309008865886D22
:1004300070470000E4470008014600208A6A8B6983
:10044000CBB932B1012A0DD0022A03D0032A10D130
:100450000EE000BFCB6A03F08073B3F1807F00D160
:10046000012007E0CB6AB3F1C07F00D1012001E099
:1004700000E000BF34E08B69B3F5005F1AD132B100
:10048000012A07D0022A03D0032A11D10AE000BFB3
:1004900001200EE0CB6A03F08073B3F1807F00D1BE
:1004A000012006E0CB6AB3F1C07F00D1012000E05B
:1004B00000BF15E032B1012A05D0022A04D0032A78
:1004C0000CD103E000BF00BF012008E0CB6A03F0BD
:1004D0008073B3F1807F00D1012000E000BF00BF36
:1004E000704730B50468246824F4802405682C60C3
:1004F000046863608468402C04D10468A2600468C6
:10050000E16003E00468A1600468E26030BD704708
:1005100072B600BFFEE7014691F83500022803D00D
:100520008020486501207047052081F83500086863
:10053000006820F001000A6810600020F3E701461F
:10054000486D7047F8B50446002000908C4800685C
:100550004FF41651B0FBF1F7A56D2E6894F85C10BE
:1005600008208840304098B12068006800F00400FE
:1005700070B12068006820F004002168086094F8D9
:100580005C1008208840A860606D40F00100606544
:1005900094F85C1001208840304068B120684069C0
:1005A00000F0800040B194F85C1001208840A86001
:1005B000606D40F00200606594F85C100420884093
:1005C000304068B12068006800F0020040B194F843
:1005D0005C1004208840A860606D40F004006065F5
:1005E00094F85C1010208840304078B32068006890
:1005F00000F0080050B394F85C1010208840A86008
:100600002068006800F4802080B12068006800F451
:10061000002028B9206CC8B12046216C884715E01D
:10062000A06C98B12046A16C88470FE02068006854
:1006300000F4807028B92068006820F00800216864
:100640000860206C10B12046216C884794F85C103B
:10065000202088403040002865D02068006800F0E5
:10066000100000285FD094F85C1020208840A8601B
:1006700094F83500052828D12068006820F016007D
:10068000216808602068406920F080002168486186
:10069000206C08B9A06C28B12068006820F0080020
:1006A0002168086094F85C103F208840A860012011
:1006B00084F8350000BF002084F8340000BF206DAE
:1006C00010B12046216D8847F8BD2068006800F40D
:1006D000802080B12068006800F4002028B9606C98
:1006E00010B12046616C88471DE0E06BD8B1204610
:1006F000E16B884717E02068006800F4807068B9F3
:100700002068006820F0100021680860012084F84B
:10071000350000BF002084F8340000BFE06B10B14A
:100720002046E16B8847606D38B3606D00F00100D2
:10073000F0B1052084F835002068006820F0010041
:100740002168086000BF0098401C0090B84200D9A2
:1007500005E02068006800F001000028F3D100BF28
:10076000012084F8350000BF002084F8340000BF69
:10077000E06C10B12046E16C884700BFA4E70000A0
:10078000180200202DE9F0410446002500F0D6F9BA
:10079000074614B90120BDE8F081606A00B100BFCE
:1007A000022084F8350000BF002084F8340000BF28
:1007B0002068006820F00100216808600AE000F06D
:1007C000BDF9C01B052805D920206065032084F8E9
:1007D0003500E0E72068006800F001000028EED155
:1007E0002068056821480540D4E901010843E16813
:1007F00008432169084361690843A1690843E16925
:100800000843216A08430543606A042803D1D4E9F8
:100810000B0108430543206805602068456925F001
:100820000705606A0543606A04280DD1A06A054384
:10083000E06A48B12046FFF7FFFD28B1402060651F
:10084000012084F83500A6E7206845612046FFF7BF
:10085000D9FD064694F85C103F208840B060002027
:100860006065012084F83500002094E73F8010F097
:100870002DE9F04704460D4616461F464FF0000886
:10088000D4F8589000BF94F83400012802D1022017
:10089000BDE8F087012084F8340000BF94F83500EB
:1008A000012825D1022084F83500002060653B46F0
:1008B000324629462046FFF714FE94F85C103F208C
:1008C0008840C9F808002068006840F016002168D8
:1008D0000860206C28B12068006840F0080021689A
:1008E00008602068006840F001002168086006E0A8
:1008F00000BF002084F8340000BF4FF002084046DB
:10090000C6E7000070B5044600F018F90646254613
:10091000681C10B104480078054400BF00F00EF9CF
:10092000801BA842FAD370BD14020020F8B502461D
:100930000B460025002400200021D6E0012606FAFF
:1009400001F51E6806EA0504AC4274D11E7906F072
:100950000306012E04D01E7906F00306022E13D1E1
:1009600090684F000326BE40B0434F00DE68BE4093
:1009700030439060506801268E40B0431E79C6F324
:1009800000168E40304350601E7906F00306032E99
:1009900009D0D0684F000326BE40B0434F009E6888
:1009A000BE403043D0601E7906F00306022E13D1FC
:1009B000CF0802F1200656F827004E07F70E0F2643
:1009C000BE40B0434F07FF0E1E69BE403043CF0804
:1009D00002F1200646F8270010684F000326BE40AB
:1009E000B0431E7906F003064F00BE40304310604E
:1009F0005E6806F44036002E76D000BF00260096D2
:100A00003C4E366846F480463A4F3E603E46366875
:100A100006F48046009600BF00BF374E8F0856F898
:100A200027008E07370F0F26BE40B043334EB24229
:100A300002D1002624E057E0314EB24201D1012616
:100A40001EE0304EB24201D1022619E02E4EB242D3
:100A500001D1032614E02D4EB24201D104260FE04D
:100A60002B4EB24201D105260AE02A4EB24201D1F4
:100A7000062605E0284EB24201D1072600E00826EE
:100A80008F073F0FBE4030431B4E8F0846F82700AC
:100A9000224E3068A0435E6806F4801606B12043FB
:100AA0001E4E3060361D3068A0435E6806F40016A6
:100AB00006B12043194E361D3060184E361F30687F
:100AC000A0435E6806F4003606B12043134E361F7D
:100AD0003060361F3068A0435E6806F4803606B189
:100AE00020430E4E083E3060491C1029FFF426AF0B
:100AF000F8BD0000443802400838014000000240C0
:100B00000004024000080240000C024000100240B5
:100B10000014024000180240001C0240083C014042
:100B2000024613690B400BB1012000E00020704722
:100B30000AB1816101E00B048361704701480068DC
:100B4000704700000C020020034800680349097840
:100B500008440149086070470C020020140200207C
:100B600010B50D48006840F400700B490860084655
:100B7000006840F4806008600846006840F48070B7
:100B80000860032000F0DCF80F2000F007F800F008
:100B90005FF8002010BD0000003C02402DE9F0414C
:100BA00088B004460027B84600BF002001902448C2
:100BB000006840F00100224908600846006800F023
:100BC0000100019000BF00BF02A903A800F08EF948
:100BD000069F1FB900F0B2F9054602E000F0AEF939
:100BE00045001848B5FBF0F0A0F101084FF0804037
:100BF0001549086040F2E7311348C160C0F804802D
:100C0000002101618160816101F056F9064696B9C3
:100C10000D4801F085F906466EB91C2000F042F837
:100C2000102C07D2002221461C2000F04BF8074868
:100C3000046000E00126304608B0BDE8F081000005
:100C40004038024040420F003C05002010020020C6
:100C500008B500BF002000901148006840F48040B3
:100C60000F4908600846006800F48040009000BF0B
:100C700000BF00BF00200090081F006840F08050B7
:100C8000091F08600846006800F08050009000BF0F
:100C900000BF00220F21901E00F014F808BD0000D4
:100CA0004438024001460846002809DB00F01F03D3
:100CB00001229A4043099B0003F1E023C3F800217D
:100CC00000BF70472DE9F05F80460D4616460027AD
:100CD00002F004FD074639462A46334601F0070074
:100CE000C0F1070ABAF1040F02D94FF0040A01E07B
:100CF000C0F1070AD14600F1040ABAF1070F02D287
:100D00004FF0000A01E0A0F1030AD4464FF0010AB7
:100D10000AFA09FAAAF1010A0AEA020A0AFA0CFA1C
:100D20004FF0010B0BFA0CFBABF1010B0BEA030BC1
:100D30004AEA0B042146404602F0D8FCBDE8F09F89
:100D400000BF00F00702064B19684FF6FF03194079
:100D5000044B0B4343EA0221014B196000BF70476B
:100D60000CED00E00000FA0570B504460D460CB924
:100D7000012070BD5848006800F00700A84209D261
:100D800055490D700846006800F00700A84201D0E0
:100D90000120EEE7207800F0020002281DD1207823
:100DA00000F00400042805D14C48006840F4E050ED
:100DB0004A490860207800F00800082805D1474813
:100DC000006840F46040454908604448006820F0ED
:100DD000F000A168084341490860207800F0010054
:100DE000A8B36068012807D13C4808380068C0F300
:100DF0004040B8B90120BCE76068022802D06068B2
:100E0000032807D1354808380068C0F3406048B966
:100E10000120AEE7314808380068C0F3400008B947
:100E20000120A6E72D48006820F003006168084310
:100E30002A490860FFF782FE064609E0FFF77EFEBA
:100E4000801B41F28831884202D9032091E707E0F4
:100E50002248006800F00C006168B0EB810FEDD112
:100E60001D48006800F00700A84209D91A490D7012
:100E70000846006800F00700A84201D0012078E78A
:100E8000207800F00400042807D11448006820F4FA
:100E9000E050E168084311490860207800F008003C
:100EA000082808D10D48006820F46040216940EA14
:100EB000C1000A49086000F061F808490968C1F3F7
:100EC0000311074A515CC84006490860064800689B
:100ED000FFF764FE00204CE7003C02400838024067
:100EE000EC47000818020020100200200F220260C8
:100EF0000D4A126802F0030242600B4A126802F0C7
:100F0000F0028260084A126802F4E052C260064AA7
:100F1000126802F46042D2080261044A126802F0C8
:100F200007020A607047000008380240003C024097
:100F300001480068704700001802002000B5FFF764
:100F4000F7FF04490968C1F38221034A515CC84094
:100F500000BD000008380240FC47000800B5FFF75C
:100F6000E7FF04490968C1F34231034A515CC840B4
:100F700000BD000008380240FC4700082DE9F0479A
:100F8000002400250026A1462548006800F00C003A
:100F900020B1042805D008283AD105E0DFF8849074
:100FA00039E0DFF8849036E01D48001F006800F04B
:100FB0003F041B48001F006800F4800078B11A4805
:100FC0001749091F0968C1F38811A0FB0170014688
:100FD000224600233846FFF755F905460EE0114832
:100FE0000F49091F0968C1F38811A0FB0170014670
:100FF000224600233846FFF745F905460848001FFA
:101000000068C0F30140401C4600B5FBF6F902E061
:10101000DFF8109000BF00BF4846BDE8F087000031
:10102000083802400024F40040787D01F8B50446F9
:101030000CB90120F8BD207800F00100002874D020
:10104000F948006800F00C0004280DD0F64800684C
:1010500000F00C00082813D1F348001F006800F4CA
:101060008000B0F5800F0BD1EF4808380068C0F35E
:101070004040002859D06068002856D10120D9E7A7
:1010800000BF6068B0F5803F08D1E74808380068C5
:1010900040F48030E449083908601EE06068B0F52B
:1010A000A02F0DD1E0480838006840F48020DE49C8
:1010B000083908600846006840F4803008600CE099
:1010C000D9480838006820F48030D74908390860CA
:1010D0000846006820F48020086000BF606890B176
:1010E000FFF72CFD054606E0FFF728FD401B6428AE
:1010F00001D903209EE7CC4808380068C0F340407F
:101100000028F1D011E0FFF719FD054606E0FFF7D2
:1011100015FD401B642801D903208BE7C24808381D
:101120000068C0F340400028F1D1207800F00200B0
:1011300002285FD1BC48006800F00C0058B1BA48E2
:10114000006800F00C0008281CD1B748001F006898
:1011500000F48000B0B9B44808380068C0F340001B
:1011600020B1E068012801D0012063E7AE480838CB
:10117000006820F0F800216940EAC100AA49083956
:10118000086037E0E06800B30120A8490860FFF775
:10119000D5FC054606E0FFF7D1FC401B022801D92B
:1011A000032047E7A04808380068C0F34000002843
:1011B000F1D09D480838006820F0F800216940EA25
:1011C000C10099490839086014E000209749086077
:1011D000FFF7B4FC054606E0FFF7B0FC401B022811
:1011E00001D9032026E7904808380068C0F3400082
:1011F0000028F1D1207800F0080008282CD160697F
:10120000A8B101208A490860FFF798FC054606E06E
:10121000FFF794FC401B022801D903200AE782480B
:101220006C300068C0F340000028F1D014E00020CA
:101230007F490860FFF782FC054606E0FFF77EFC69
:10124000401B022801D90320F4E677486C3000687F
:10125000C0F340000028F1D1207800F004000428F9
:1012600070D1002770483830006800F0805090B985
:1012700000BF002000906C483830006840F080507B
:101280006949383108600846006800F080500090D5
:1012900000BF00BF01276748006800F48070B0B944
:1012A0006448006840F4807062490860FFF746FCBB
:1012B000054606E0FFF742FC401B022801D9032047
:1012C000B8E65C48006800F480700028F2D000BFE7
:1012D000A068012808D154486830006840F0010037
:1012E0005149683108601DE0A06805280DD14E48BD
:1012F0006830006840F004004B49683108600846D7
:10130000006840F0010008600CE047486830006861
:1013100020F001004449683108600846006820F068
:101320000400086000BFA068A8B1FFF707FC0546ED
:1013300009E0FFF703FC401B41F28831884202D9E3
:10134000032077E626E0384868300068C0F34000A4
:101350000028EED013E0FFF7F1FB054608E0FFF7A9
:10136000EDFB401B41F28831884201D9032061E640
:101370002D4868300068C0F340000028EFD1012FED
:1013800007D129483830006820F08050264938318C
:10139000086000BFA069002845D02348006800F01D
:1013A0000C0008285DD0A069022845D100201F4903
:1013B0000866FFF7C3FB054606E0FFF7BFFB401BCF
:1013C000022801D9032035E6174808380068C0F321
:1013D00040600028F1D1D4E907010843616A40EA7E
:1013E00081110122A06AC2EB500041EA00412C2089
:1013F000005D41EA00600C49091F086001200B49AB
:101400000866FFF79BFB054606E0FFF797FB401BCE
:10141000022801D903200DE6034808380068C0F30C
:1014200040600028F1D049E00838024000004742FF
:10143000800E474200700040002021490866FFF7F7
:101440007DFB054606E0FFF779FB401B022801D92A
:101450000320EFE51B480068C0F340600028F2D18C
:101460002CE0A069012800D1E4E51648001D0668BB
:10147000A069012820D006F48001E06981421BD1D7
:1014800006F03F01206A814216D147F6C070304015
:10149000616AB0EB811F0FD106F440310122A06ACE
:1014A000C2EB5000B1EB004F06D106F070612C206A
:1014B000005DB1EB006F01D00120BBE50020B9E574
:1014C000000047420038024070470000F0B589B084
:1014D00004460E460027032084F83400606C03287D
:1014E00020D0B6F5805F04D1A06B40F08050A0639F
:1014F0001CE0B6F5006F07D1204601F03AFE054624
:10150000A06B2843A06311E03EB9204601F0FDFD29
:101510000546A06B2843A06308E0A06B40F0006084
:10152000A06303E0A06B40F08050A063A06B38B1D3
:10153000174821688863012084F83400012713E0EC
:1015400060680390A0680490E06805900696606962
:101550000790A069089006A807C88DE807002068D2
:1015600003A90EC900F064FF4FF40071206800F079
:10157000D7FF054635B1064821688863A06B28432C
:10158000A0630127012084F83400384609B0F0BD7B
:10159000FF0540007047000010B50246506E800FF6
:1015A0000870506EC0F383604870506EC0F30160E5
:1015B0008870506E000CC870B2F86400000A0871A0
:1015C00092F864004871906E000DC880906EC0F370
:1015D000034008726820805AC0F3C0304872682007
:1015E000805AC0F3803088726820805AC0F340303F
:1015F000C8726820805AC0F3003008730020487316
:10160000506C002836D16820805A8005030DD06EBA
:1016100043EA90700861D06EC0F3C2600875D06E66
:10162000C0F302604875D06EC0F342508875D06E2A
:10163000C0F38240C875D06EC0F3C2300876086926
:10164000401C50650B7E506D03F007039B1C01246A
:101650009C4060435065087A00F00F0301209840D9
:101660009065D2E915035B0A5843D0654FF40073C7
:10167000136621E0506C012813D16820805C80063D
:10168000830AD06E43EA104008610869401C830257
:101690005365536DD3654FF400739365936D136673
:1016A0000AE02E4813689863906B40F08050906376
:1016B000012082F8340010BD6C20805AC0F38030C5
:1016C00001F8190F6C20805AC0F3C61048706C20C6
:1016D000805C00F07F008870106FC00FC870106FC2
:1016E000C0F341700871106FC0F382604871106FD1
:1016F000C0F383508871106FC0F34050C871002050
:101700000872106FC0F3004048727020805AC0F316
:10171000C03088727020805AC0F38030C872702048
:10172000805AC0F3403008737020805AC0F30030F4
:1017300048737020805AC0F3812088737020805ACB
:10174000C0F30120C8737020805CC0F346000874A9
:101750000120487419390020ADE70000FF05400062
:10176000F8B50446002000906946204601F0B5FC1B
:10177000054615B1A06B2843A0630098C0F343262B
:101780003046F8BD70B50446256B2068406BC0F349
:10179000C03030B105F0080018B1204601F078FCE7
:1017A000F8E02068406BC0F30020002862D04FF4BE
:1017B0008070216888632068C06B4CF23A3188439E
:1017C0002168C8632068C06A20F001002168C862EF
:1017D00005F0080038B305F0020010B905F020004C
:1017E00050B1206800F0E0FF06462EB1A06B3043F8
:1017F000A0632046FFF7CEFE40F23A50216888638E
:10180000012084F834000020206305F0010010B9A5
:1018100005F0020018B1204600F0A0FABAE0204618
:1018200000F09DFAB6E005F080000028B8D005F081
:10183000200050B1206800F0B7FF06462EB1A06B23
:101840003043A0632046FFF7A5FE05F00100002805
:10185000A6D105F002000028A2D12068C06A20F0BD
:1018600008002168C862012084F83400204600F096
:1018700076FA8FE02068406BC0F3803030B105F01D
:10188000080018B1204601F0A8FC83E02068406BF6
:1018900040F23A21084008B1012000E00020002871
:1018A00078D02068406BC0F3400018B1A06B40F0C6
:1018B0000200A0632068406BC0F3C00018B1A06BA9
:1018C00040F00800A0632068406BC0F3401018B1DE
:1018D000A06B40F02000A0632068406BC0F30010B4
:1018E00018B1A06B40F01000A0632068406BC0F3FB
:1018F000402018B1A06B40F00800A06340F23A709D
:10190000216888632068C06B40F23A3188432168BF
:10191000C863206800F048FFA16B0843A06305F08E
:10192000080040B1012084F83400002020632046E4
:10193000FFF730FE2EE005F0800000B305F0100048
:1019400010B905F0200050B11348E16B0865E06B59
:10195000FEF7E1FD98B1E06B01F0EDF91AE005F05A
:10196000010010B905F0020050B10C48216C086567
:10197000206CFEF7D0FD10B1206C01F0AFF909E04A
:101980000020A063012084F834000020206320465A
:10199000FFF79AFD70BD0000372D0008DD2C000810
:1019A00010B504460CB9012010BD94F8340020B9DC
:1019B00000202077204600F069F8032084F83400E6
:1019C000204600F00BF808B10120EDE70020A063ED
:1019D0002063012084F834000020E5E770B58AB068
:1019E0000446002004900590069007900890762009
:1019F000099007A807C88DE80700206804A90EC948
:101A000000F016FD064616B101200AB070BD002098
:101A10001C490860206800F025FD01201949A03903
:101A2000C1F8A0000220FEF76DFF204601F0CAFABF
:101A300005463DB1012084F83400A06B2843A06323
:101A40000120E2E7204601F03BFA05463DB10120C6
:101A500084F83400A06B2843A0630120D5E74FF43D
:101A60000071206800F05CFD05464DB10648216814
:101A70008863A06B2843A063012084F83400C4E786
:101A80000020C2E7A0802542FF05400010B586B0C7
:101A9000044600BF002000905548006840F40060F4
:101AA000534908600846006800F40060009000BFD9
:101AB00000BF00BF002000904D481438006840F07F
:101AC00004004B49143908600846006800F004001F
:101AD000009000BF00BF00BF0020009008460068D3
:101AE00040F0080008600846006800F00800009018
:101AF00000BF00BF142101A8FEF7FCFB4FF4F85013
:101B00000190022002900C200590012003900320F8
:101B1000049001A93748FEF709FF0420019001A9AC
:101B20003548FEF703FF3548354908604FF000603F
:101B30004860002132488160C1604FF480610161DA
:101B400089004161890081612021C1614FF44031E8
:101B5000016204214162032181624FF40001C162EC
:101B600089100163FEF70EFE08B1FEF7D1FC00BF3D
:101B700023482449086408462149886300BF1F4858
:101B80004830214908604FF00060486040211E48FD
:101B900081600021C1604FF4806101618900416171
:101BA000890081612021C1614FF44031016204212B
:101BB0004162032181624FF40001C1628910016317
:101BC000FEF7E0FD08B1FEF7A3FC00BF0E480D498B
:101BD000C86308460C49886300BF002205213120F4
:101BE000FFF770F83120FFF75DF806B010BD000078
:101BF0004438024000080240000C02405864024091
:101C0000700B0020EC0A0020D00B00202DE9F043DF
:101C100087B004460F4691461D46C8463FB9A06BA3
:101C200040F00060A063012007B0BDE8F08394F8A5
:101C3000340001287ED10020A06308EB0501E06D8F
:101C4000814205D9A06B40F00070A0630120EBE752
:101C5000032084F8340000202168C8622068C06B2B
:101C600040F22A3108432168C8633848216CC863B0
:101C70003748216CC8640020216C08650021206C65
:101C80008160206C0068006820F0C000216C8968C9
:101C90000843216C096808606A029308226802F10F
:101CA00080013A46206CFEF7E3FD80B12068C06BEE
:101CB00020F495702168C863264821688863A06B6A
:101CC00040F08040A063012084F83400ACE701209C
:101CD00021490860606C012801D04FEA48284FF084
:101CE000FF3001906802029090200390022004903F
:101CF000002005900120069001A9206800F06AFBF1
:101D0000012D07D9822020634146206800F070FC35
:101D1000064606E0812020634146206800F084FCEE
:101D2000064676B10B4821688863A06B3043A063F8
:101D3000012000E007E084F8340000202063012047
:101D400072E7002070E702206EE70000952C000883
:101D5000212C0008FF0540008C8525427047704704
:101D60002DE9F04387B00446884691461D464F460C
:101D7000B8F1000F07D1A06B40F00060A063012014
:101D800007B0BDE8F08394F83400012874D1002036
:101D9000A0637919E06D814205D9A06B40F0007015
:101DA000A0630120ECE7032084F8340000202168C0
:101DB000C8622068C06B40F21A2108432168C863DA
:101DC0003848E16BC8633848E16BC8640020E16BB8
:101DD0000865606C012800D07F02012D07D9A02082
:101DE00020633946206800F0FDFC064606E090209E
:101DF00020633946206800F011FD064666B12B4885
:101E000021688863A06B3043A063012084F834000C
:101E1000002020630120B3E701202549086040210C
:101E2000E06B8160E06B0068006820F0C000E16B4F
:101E300089680843E16B0968086069028B082168BA
:101E400001F180024146E06BFEF712FDA8B1206867
:101E5000C06B40F21A2188432168C8631348216887
:101E60008863A06B40F08040A063012084F83400B8
:101E700000202063012083E711E04FF0FF30019044
:101E800068020290902003900020049005900120A9
:101E9000069001A9206800F09DFA002070E702205A
:101EA0006EE70000252D0008212C0008FF054000EA
:101EB0008C8525427047704710B504460CB9012047
:101EC00010BD94F83D0028B9002084F83C0020465D
:101ED00000F025F8022084F83D00211D206801F063
:101EE0001FFA012084F8460000BF84F83E0001215B
:101EF0003F200155402001554120015500BF00BF42
:101F0000012084F84200432001554420015545201A
:101F1000015500BF012084F83D000020D0E7704744
:101F2000014691F83D00012801D0012070470220B0
:101F300081F83D000868C06840F001000B68D86077
:101F40001A4B086898421BD00868B0F1804F17D030
:101F5000174B0868984213D0164B086898420FD068
:101F6000154B086898420BD0144B0868984207D06C
:101F7000134B0868984203D0124B086898420CD162
:101F80000868806800F00702062A0CD0086800681C
:101F900040F001000B68186005E00868006840F038
:101FA00001000B6818600020C0E70000000001403D
:101FB0000004004000080040000C00400004014004
:101FC0000040014000180040704710B504462068EA
:101FD0000069C0F34000D8B12068C068C0F3400079
:101FE000B0B16FF0020021680861012020772068FD
:101FF000806900F0030018B12046FFF7E5FF05E017
:10200000204600F0ADF8204600F0ABF80020207725
:1020100020680069C0F38000D8B12068C068C0F3B0
:102020008000B0B16FF004002168086102202077C1
:102030002068806900F4407018B12046FFF7C4FFA3
:1020400005E0204600F08CF8204600F08AF80020D9
:10205000207720680069C0F3C000D8B12068C0684C
:10206000C0F3C000B0B16FF008002168086104201F
:1020700020772068C06900F0030018B12046FFF700
:10208000A3FF05E0204600F06BF8204600F069F859
:102090000020207720680069C0F30010D8B12068C4
:1020A000C068C0F30010B0B16FF010002168086183
:1020B000082020772068C06900F4407018B12046DD
:1020C000FFF782FF05E0204600F04AF8204600F0C6
:1020D00048F8002020772068006900F0010058B11E
:1020E0002068C06800F0010030B16FF00100216885
:1020F0000861204600F036F820680069C0F3C0107F
:1021000058B12068C068C0F3C01030B16FF08000D3
:10211000216808612046FFF7CDFE20680069C0F302
:10212000801058B12068C068C0F3801030B16FF0E3
:10213000400021680861204600F01DF82068006911
:10214000C0F3401058B12068C068C0F3401030B1EF
:102150006FF02000216808612046FFF7ACFE10BD3B
:102160007047704710B504462068B0F1804F01D128
:10217000FEF7EAFC10BD704710B504460CB901200B
:1021800010BDA06900B100E000BF94F83D0028B97F
:10219000002084F83C00204600F028F8242084F831
:1021A0003D002068C06820F400502168C8602046C7
:1021B00001F022F92068006920F49040216808614C
:1021C0002068406920F02A00216848612068C068C2
:1021D00040F400502168C86000202064202084F86A
:1021E0003D0084F83E000020CAE7000010B586B02C
:1021F0000446142101A8FEF77DF81B492068884297
:1022000030D100BF002000901848006840F0100056
:10221000164908600846006800F01000009000BFF2
:1022200000BF00BF0020009010481438006840F044
:1022300001000E49143908600846006800F00100EA
:10224000009000BF00BF4FF4C060019002200290D8
:1022500000200390032004900720059001A9044862
:10226000FEF764FB06B010BD001001404438024088
:10227000000002402DE9F84F04460E4617469946E5
:102280004FF0000A94F83D0020285AD106B117B942
:102290000120BDE8F88F00BF94F83C00012801D16F
:1022A0000220F6E7012084F83C0000BF00202064F3
:1022B000212084F83D00FEF741FC8246A784E78494
:1022C000A068B0F5805F04D1206910B90025B04640
:1022D00002E035464FF0000800BF002084F83C00C3
:1022E00000BF1BE05346002280212046CDF800901D
:1022F00001F098F908B10320CBE745B9B8F8000020
:10230000C0F308002168486008F1020803E028785B
:10231000216848606D1CE08C401EE084E08C002841
:10232000E0D15346002240212046CDF8009001F034
:1023300079F908B10320ACE7202084F83D000020A3
:10234000A7E70220A5E700BFFEE7000008B500BF31
:10235000002000900E48006840F480000C4908609E
:102360000846006800F48000009000BF00BF002213
:1023700005213B20FEF7A6FC3B20FEF793FC002244
:1023800005214520FEF79EFC4520FEF78BFC08BD8D
:102390003038024010B50B480B4908604FF4E1306B
:1023A0004860002108488160C16001610C214161E1
:1023B00000218161C161FFF7DFFE08B1FEF7A8F8D7
:1023C00010BD000000100140480A002000BFFEE7D9
:1023D00000BFFEE710B50246002308685062486857
:1023E0009062D1E9020420430C6920434C692043E8
:1023F0000343D06A20F0F7001843D062002010BDDC
:1024000001460869C0B270470146086800F0030041
:102410007047024602F11400431818687047000024
:1024200010B50248FFF7AEF910BD0000EC0A00201D
:102430000FB410B504460021DDE903021043059AEC
:102440001043069A1043079A1043089A1043014319
:10245000606847F6FF62904308436060002010BC4C
:102460005DF814FB01460320086000207047014618
:10247000D1F88000704710B50246002308689060CC
:10248000D1E901042043CC6820430C692043034375
:10249000D0686FF30B001843D060002010BD0246D7
:1024A0000868C2F880000020704770B585B0054606
:1024B0000C460094372001904020029000200390A9
:1024C0004FF48060049069462846FFF7D4FF41F23C
:1024D00088323721284600F0DDF90646304605B03F
:1024E00070BD000070B585B005460C460B48204312
:1024F00000902920019040200290002003904FF48A
:102500008060049069462846FFF7B5FF284600F032
:10251000C9FA0646304605B070BD000000001080C4
:1025200070B585B005460C460094102001904020FF
:102530000290002003904FF4806004906946284682
:10254000FFF799FF41F288321021284600F0A2F9E6
:102550000646304605B070BD70B585B005460C46E0
:1025600000940620019040200290002003904FF438
:102570008060049069462846FFF77DFF41F288326B
:102580000621284600F086F90646304605B070BDA3
:1025900030B585B004460020009001900290039071
:1025A0004FF48060049069462046FFF764FF2046A0
:1025B00000F050F90546284605B030BD30B585B06D
:1025C00004464FF4D57000900820019040200290FE
:1025D000002003904FF48060049069462046FFF786
:1025E0004AFF204600F0E6FA0546284605B030BD11
:1025F00070B585B005460C4600941220019040202D
:102600000290002003904FF48060049069462846B1
:10261000FFF731FF41F288321221284600F03AF9E3
:102620000646304605B070BD70B585B005460C460F
:1026300000941120019040200290002003904FF45C
:102640008060049069462846FFF715FF41F2883202
:102650001121284600F01EF90646304605B070BD2F
:10266000F0B585B0064614461D460094072001903B
:1026700040200290002003904FF48060049069464F
:102680003046FFF7F8FE41F288320721304600F06D
:1026900001F90746384605B0F0BD30B585B00446AF
:1026A0000020009002200190C020029000200390A2
:1026B0004FF48060049069462046FFF7DCFE204618
:1026C00000F0BEF90546284605B030BD70B585B0AE
:1026D00005460C46009409200190C020029000207D
:1026E00003904FF48060049069462846FFF7C3FECC
:1026F000284600F0A5F90646304605B070BD30B555
:1027000085B00446002000903320019040200290C4
:10271000002003904FF48060049069462046FFF744
:10272000AAFE41F288323321204600F0B3F8054674
:10273000284605B030BD70B585B005460C460094FE
:102740000D20019040200290002003904FF4806003
:10275000049069462846FFF78EFE41F288320D212B
:10276000284600F097F80646304605B070BD70B5B3
:1027700085B005460C4600200090032001904020C3
:102780000290002003904FF4806004906946284630
:10279000FFF771FE22460321284600F0AFF90646F6
:1027A000304605B070BD000030B585B0044600204D
:1027B00000900C20019040200290002003904FF4E4
:1027C0008060049069462046FFF755FE044A0C21BC
:1027D000204600F05FF80546284605B030BD0000F1
:1027E00000E1F50570B585B005460C46009419204A
:1027F000019040200290002003904FF480600490EC
:1028000069462846FFF737FE41F2883219212846EB
:1028100000F040F80646304605B070BD70B585B092
:1028200005460C460094182001904020029000209C
:1028300003904FF48060049069462846FFF71BFE22
:1028400041F288321821284600F024F80646304626
:1028500005B070BD01460E480068C0084FF47A7399
:10286000B0FBF3F041F2883300FB03F200BF101E0F
:10287000A2F1010202D14FF000407047486B00F016
:1028800080000028F3D0C52088630020F5E7000011
:10289000180200202DE9F04305460F469046664891
:1028A0000068C0084FF47A71B0FBF1F000FB08F942
:1028B00000BFB9F10000A9F1010903D14FF00040B8
:1028C000BDE8F0836E6B06F045000028F1D006F4F9
:1028D00000600028EDD1686B00F0040010B1042006
:1028E000A863EDE7686B00F0010010B10120A86358
:1028F000E6E7C520A8632846FFF782FDB84201D06D
:102900000120DDE700212846FFF783FD04464B4800
:10291000204008B90020D3E704F00040B0F1004F98
:1029200002D14FF00070CBE704F08040B0F1804F4F
:1029300001D14020C4E704F00050B0F1005F01D1A4
:102940008020BDE704F08050B0F1805F02D14FF4E9
:102950008070B5E704F00060B0F1006F02D14FF471
:102960000070ADE704F08060B0F1806F02D14FF4E9
:102970008060A5E704F08070B0F1807F02D14FF451
:1029800000609DE704F40000B0F5000F02D14FF4A1
:10299000805095E704F48000B0F5800F02D14FF429
:1029A00000508DE704F40010B0F5001F02D14FF481
:1029B000804085E704F48010B0F5801F02D14FF409
:1029C00000407DE704F48020B0F5802F02D14FF461
:1029D000003075E704F40030B0F5003F02D14FF449
:1029E00080206DE704F48030B0F5803F02D14FF4D1
:1029F000002065E704F40040B0F5004F02D14FF429
:102A000080105DE704F48040B0F5804F02D14FF4B0
:102A1000001055E704F40050B0F5005F02D14FF408
:102A200080004DE704F00800082801D1000547E7C1
:102A30004FF4803044E700001802002008E0FFFD5A
:102A400010B5014616480068C0084FF47A74B0FB10
:102A5000F4F041F2883400FB04F300BF181EA3F128
:102A6000010302D14FF0004010BD4A6B02F0450057
:102A70000028F3D002F400600028EFD1486B00F08A
:102A8000040010B104208863EEE7486B00F00100F9
:102A900010B101208863E7E7C52088630020E3E7E1
:102AA0001802002010B5014613480068C0084FF412
:102AB0007A74B0FBF4F041F2883400FB04F300BFF9
:102AC000181EA3F1010302D14FF0004010BD4A6B64
:102AD00002F045000028F3D002F400600028EFD196
:102AE000486B00F0040010B104208863EEE7C520B5
:102AF00088630020EAE70000180200202DE9F04377
:102B000004460F4690462A480068C0084FF47A7180
:102B1000B0FBF1F041F2883100FB01F900BFB9F1DF
:102B20000000A9F1010903D14FF00040BDE8F08396
:102B3000666B06F045000028F1D006F4006000281E
:102B4000EDD1606B00F0040010B10420A063EDE74C
:102B5000606B00F0010010B10120A063E6E72046A1
:102B6000FFF74EFCB84201D00120DFE7C520A0638B
:102B700000212046FFF74DFC054605F4604020B9D2
:102B8000280CA8F800000020D0E705F48040B0F53C
:102B9000804F02D14FF40050C8E705F40040B0F573
:102BA000004F02D14FF48050C0E74FF48030BDE7B2
:102BB0001802002010B5014618480068C0084FF4FC
:102BC0007A74B0FBF4F041F2883400FB04F300BFE8
:102BD000181EA3F1010302D14FF0004010BD4A6B53
:102BE00002F045000028F3D002F400600028EFD185
:102BF000486B00F0040010B104208863EEE7486BD6
:102C000000F0010010B101208863E7E7486B00F095
:102C1000400008B1402088630020DFE71802002050
:102C20002DE9F0410646B46B3046FDF788FC0228DA
:102C30002CD0206C476DE06BD0F85480012F02D06F
:102C4000B8F1010F1FD11248216888632068C06B5A
:102C500020F49D702168C863A06B40F08040A063A1
:102C60002046FEF77DFD0546062D01D0052D05D138
:102C70002068FFF799FDA16B0843A063012084F849
:102C80003400002020632046FEF784FCBDE8F0817C
:102C9000FF05400070B50646B46B206B82280AD150
:102CA0002068FFF781FD05462DB1A06B2843A06386
:102CB0002046FEF76FFC2068C06A20F008002168FB
:102CC000C86240F23A5021688863012084F83400D9
:102CD000002020632046FFF741F870BD70B505461F
:102CE000AC6B40F23A50216888632046FEF738FD0D
:102CF0000646012084F8340000202063062E01D00F
:102D0000052E05D12068FFF74FFDA16B0843A06396
:102D1000A06B18B92046FEF7D7FB02E02046FEF76D
:102D200039FC70BD0146886B0268D26B42F4807238
:102D30000368DA63704770B50546AC6B40F23A50F1
:102D4000216888632046FEF70BFD0646012084F8C3
:102D5000340000202063062E01D0052E05D1206806
:102D6000FFF722FDA16B0843A063A06B18B92046B2
:102D7000FEF7AAFB02E02046FEF70CFC70BD2DE931
:102D8000F04389B004460F46FDF7D8FE81464FF068
:102D900000080020019002903E4608212068FFF7BD
:102DA000BFFB05461DB1284609B0BDE8F08350229F
:102DB000125B11042068FFF778FB05460DB1284629
:102DC000F2E74FF0FF300390082004903020059088
:102DD00002200690002007900120089003A9206897
:102DE000FFF7F8FA2068FFF78AFC05460DB1284680
:102DF000DAE71CE02068406B00F4001040B1206866
:102E0000FFF735FB01A941F8280008F1010805E0AA
:102E10002068406B00F4005000B90EE0FDF78EFE14
:102E2000A0EB0900401C10B94FF00040BCE720683F
:102E3000406B00F02A000028DCD000BF2068406B07
:102E400000F0080018B1082021688863ACE720680A
:102E5000406B00F0020018B1022021688863A3E7EC
:102E60002068406B00F0200018B1202021688863A2
:102E70009AE740F23A502168886302980006029966
:102E800001F47F4140EA0120029901F47F0140EA08
:102E90001120029940EA11603060361D0198000649
:102EA000019901F47F4140EA0120019901F47F0179
:102EB00040EA1120019940EA11603060002073E778
:102EC00030B58FB00446012003902068FFF79CFACC
:102ED00018B94FF080600FB030BD606C03281BD074
:102EE0002068FFF7DAFB05460DB12846F3E700211D
:102EF0002068FFF78EFA606704212068FFF789FADF
:102F0000A06708212068FFF784FAE0670C21206899
:102F1000FFF77FFA80210851606C032807D003A9CE
:102F20002068FFF724FC05460DB12846D3E7606C06
:102F3000032820D0BDF80C1021655022125B11042B
:102F40002068FFF7C3FB05460DB12846C3E7002103
:102F50002068FFF75EFA606604212068FFF759FADF
:102F6000A06608212068FFF754FAE0660C2120686B
:102F7000FFF74FFA206704212068FFF74AFA010D96
:102F8000E16404A92046FEF707FB10B14FF0805022
:102F9000A1E75020005B01040A4600232068FFF7E8
:102FA0005FFB05460DB1284695E7D4E90412A069F8
:102FB000CDE90012029094E80F00FFF739FA0020E3
:102FC00089E70000F8B5044600200090002600279D
:102FD0002068FFF7DDFA05460DB12846F8BD2068E8
:102FE000FFF7ECFA054645B10021A1642068FFF720
:102FF000CFFA05461DB12846F0E70121A164A06C77
:10300000012808D100212068FFF74FFA054615B1C5
:103010004FF08050E2E71DE000212068FFF745FAFD
:1030200005460DB12846D9E718492068FFF75AFA36
:10303000054615B14FF08050D0E700212068FFF71A
:10304000E8F90646012080EAD67080F00107009872
:10305000401C00904FF6FF710098884201D2002F6B
:10306000DAD04FF6FF710098884202D34FF080709B
:10307000B4E706F08040B0F1804F02D101206064D7
:1030800001E0002060640020A8E70000000010C1FB
:103090002DE9F0410546AC6AEF6AE7B14FF0000850
:1030A00014E02868FFF7E3F906462670641C7F1ECB
:1030B000300A2070641C7F1E300C2070641C7F1E40
:1030C000300E2070641C7F1E08F10108B8F1080F53
:1030D000E7D3AC62EF62BDE8F08170B504460D46FF
:1030E00015B94FF0006070BD5022125B11042068CA
:1030F000FFF721FB06460EB13046F4E700212068B9
:10310000FFF787F928600020EDE77CB50446002032
:103110000090019000212068FFF77BF900F000701B
:10312000B0F1007F02D14FF400607CBD69462046BB
:10313000FFF725FE05460DB12846F6E7019800F495
:10314000803098B15022125B11042068FFF7ADF96E
:1031500005460DB12846E8E700212068FFF7FCF995
:1031600005460DB12846E0E70020DEE74FF080601D
:10317000DBE77CB504460020009001900021206828
:10318000FFF747F900F00070B0F1007F02D14FF473
:1031900000607CBD69462046FFF7F1FD05460DB194
:1031A0002846F6E7019800F4802098B15022125B7F
:1031B00011042068FFF779F905460DB12846E8E7C4
:1031C00002212068FFF7C8F905460DB12846E0E75F
:1031D0000020DEE74FF08060DBE7F8B505462C6A9B
:1031E0006E6A1EB300271DE020780090641C761ED6
:1031F0002078009941EA00200090641C761E207817
:10320000009941EA00400090641C761E20780099E5
:1032100041EA00600090641C761E69462868FFF74A
:103220003EF97F1C082FDFD32C626E62F8BD10B50B
:103230004FF0E020006901F023FA012801D001F0ED
:1032400005FA10BD00B593B0302107A8FDF752F87C
:10325000142102A8FDF74EF800BF00200190254878
:10326000006840F08050234908600846006800F07C
:103270008050019000BF00BF00BF002001901E4899
:10328000006840F480401C4908600846006800F46B
:103290008040019000BF00BF0220079001200A90EB
:1032A00010200B9002200D9000210E9108210F910B
:1032B000A8211091022111910421129107A8FDF774
:1032C000B5FE08B1FDF724F90F200290022003900B
:1032D000002004904FF4A05005904FF480500690C9
:1032E000052102A8FDF740FD08B1FDF711F913B063
:1032F00000BD0000403802400070004003480068F4
:1033000040F47000014908607047000088ED00E05B
:1033100010B50248FEF759FE10BD00003C05002024
:1033200010B50268294B98420ED0B0F1804F0BD0F7
:10333000274B984208D0274B984205D0264B9842FD
:1033400002D0264B984203D122F070024B681A43F8
:103350001E4B984220D0B0F1804F1DD01C4B98429C
:103360001AD01C4B984217D01B4B984214D01B4BC1
:10337000984211D01A4B98420ED01A4B98420BD05B
:10338000194B984208D0194B984205D0184B9842D7
:1033900002D0184B984203D122F44072CB681A43F2
:1033A00022F080034C6943EA040202608B68C36226
:1033B0000B688362054B984202D0084B984201D1BA
:1033C0000B6903630123436110BD0000000001404D
:1033D0000004004000080040000C004000040140D0
:1033E00000400140004401400048014000180040F6
:1033F000001C0040002000402DE9F84F04462068E2
:10340000006920F44050E16808432168086121699F
:10341000A068084361690843E16908430090206897
:10342000C06849F20C618843009908432168C8606C
:103430002068406920F44070A16908432168486110
:1034400076492068884203D075492068884203D1B4
:10345000FDF784FD814602E0FDF770FD8146E069DD
:10346000B0F5004F6CD102206168A0FB015003460B
:103470001920A9FB007001462A463846FCF702FFD6
:103480006421B0FBF1F04FEA001A02206168A0FB52
:1034900001510B461920A9FB00712A463846FCF75A
:1034A000F1FE834602206168A0FB0150034619200B
:1034B000A9FB00712A463846FCF7E4FE6421B0FB04
:1034C000F1F000EBC00101EB0010ABEB800032210A
:1034D00001EBC0006421B0FBF1F000F0F8000AEB52
:1034E000400A02206168A0FB015003461920A9FB95
:1034F000007001462A463846FCF7C4FE8346022087
:103500006168A0FB015003461920A9FB00712A46FF
:103510003846FCF7B7FE6421B0FBF1F000EBC001C8
:1035200001EB0010ABEB8000322101EBC000642105
:10353000B0FBF1F000F007005044216888606AE0B9
:1035400004206168A0FB015003461920A9FB00700C
:1035500001462A463846FCF795FE824604206168FB
:10356000A0FB015003461920A9FB007001462A4622
:103570003846FCF787FE6421B0FBF1F000EBC00198
:1035800001EB0010AAEB8000322101EB0010642156
:10359000B0FBF1F000F0F00A04206168A0FB0170BC
:1035A00003461920A9FB00513A462846FCF76AFE5B
:1035B0006421B0FBF1F00AEB001A04206168A0FB63
:1035C00001510B461920A9FB00712A463846FCF729
:1035D00059FE834604206168A0FB01500346192070
:1035E000A9FB007001462A463846FCF74BFE6421D1
:1035F000B0FBF1F000EBC00101EB0010ABEB800081
:10360000322101EB00106421B0FBF1F000F00F005B
:10361000504421688860BDE8F88F00000010014028
:10362000001401402DE9F04104460D461746984626
:10363000069E34E0701C88B32EB1FDF77FFAA0EB34
:103640000800B0422BD900BF00BF21680C3151E8FF
:10365000001F21F4D07021680C3141E80002002ADB
:10366000F3D100BF00BF00BF2168143151E8001F33
:1036700021F001002168143141E80002002AF3D151
:1036800000BF202084F83D0084F83E0000BF0020E9
:1036900084F83C0000BF0320BDE8F081FFE720680C
:1036A00000682840A84201D1012000E00020B84273
:1036B000C0D00020F0E700BFFEE700000FB4054BCC
:1036C00010B503A9044A029800F034F810BC5DF864
:1036D00014FB0000B93E00083803002002480068CF
:1036E000C0F30220704700000CED00E010B5002888
:1036F00004DB0A07130E054A135406E00A07140EEA
:10370000034A00F00F031B1FD45410BD00E400E077
:1037100018ED00E002E008C8121F08C1002AFAD123
:1037200070477047002001E001C1121F002AFBD141
:10373000704700002DE9FF4F8DB00F46054600266B
:1037400006E025280BD0DDE90F1290476D1C761C92
:1037500028780028F5D111B03046BDE8F08F00245C
:10376000A246A1460122E94900E0044315F8013FC1
:10377000203B02FA03F00842F7D128782A2810D01B
:103780006FF02F022878A0F13001092914D80AEB34
:103790008A0102EB410144F0020400EB010A6D1CB6
:1037A000F0E701CF5FEA000A03D544F40054CAF100
:1037B000000A44F002046D1C28782E2817D115F851
:1037C000010F44F004042A280ED06FF02F0228784D
:1037D000A0F1300109290AD809EB890102EB410166
:1037E00000EB01096D1CF2E757F8049B6D1C28786B
:1037F0006C280FD006DC4C2817D068280DD06A281A
:1038000014D104E0742810D07A280FD10DE044F4CC
:1038100000140AE044F4801401E044F44014697890
:10382000814202D104F580146D1C6D1C28786E282D
:103830001ED00CDC632830D004DC00288BD0582844
:1038400011D19FE0642867D069280CD164E0732807
:103850002DD004DC6F2872D0702804D194E0752834
:103860006ED078286DD0DDE90F129047761C4BE1C1
:10387000C4F30250022806D0032809D0042801CF3F
:1038800009D0066040E101CFF117C0E900613BE1DA
:1038900001CF068038E1067036E117F8040B8DF889
:1038A000000000208DF80100EB46012003E057F8EE
:1038B00004BB4FF0FF3061074FF0000102D40DE070
:1038C00008F10101884649450FDA8045F8DB1BF80D
:1038D00008100029F4D108E008F10101884681426E
:1038E000FADB1BF808100029F6D1DDE90F23AAEB5B
:1038F00008008146214600F031F9304400EB08060B
:1039000004E0DDE90F121BF8010B9047B8F1010844
:10391000F7D221464846F2E00A21C4F302524FF0A2
:10392000000B0891022A04D001CFC117032A09D045
:103930000AE0FF1D27F00707F7E8020108E02CE086
:103940001EE01FE000B2C117042A01D140B2C11726
:10395000021E71F1000206DA0023D0EB030063EBD4
:1039600001012D2202E0220504D52B228DF824200E
:10397000012203E0E20701D02022F7E7904653E05E
:103980000A210BE0102109E010214FF0000B44F058
:1039900004044FF00809089103E008214FF0000BE0
:1039A0000891C4F30252022A04D001CF0021032A55
:1039B00006D006E0FF1D27F00707F7E8020103E045
:1039C00080B2042A00D1C0B24FF0000822072BD5E4
:1039D0002A78702A07D0DDF820C08CF0100C5CEA41
:1039E0000B0C05D00EE040228DF82420012208E0C7
:1039F00050EA010306D030238DF824308DF82520BD
:103A000002229046089B83F0080353EA0B030BD174
:103A100050EA010201D1620706D530228DF8242038
:103A20004FF00108A9F101092A78582A04D038A2D8
:103A30000B9208AA0A920BE03AA2F9E75B46089AB1
:103A4000FCF720FC0B9B9B5C0A9A521E0A92137097
:103A500050EA0102F2D10A98ADEB000000F1200B10
:103A6000600702D524F4803401E04FF00109D94504
:103A700002DDA9EB0B0000E0002000EB0B0141444C
:103A80000890AAEB010AE00306D4DDE90F232146E2
:103A9000504600F063F806444FF0000908E009A919
:103AA00011F80900DDE90F12904709F10109761CB0
:103AB000C145F4DBE0030CD5DDE90F232146504678
:103AC00000F04CF8064404E0DDE90F123020904786
:103AD000761C0899481E08900029F5DC08E00A9831
:103AE0000A990078491C0A91DDE90F129047761C6B
:103AF000BBF10001ABF1010BF1DC21465046DDE9E1
:103B00000F2300F019F806446D1C21E60928010076
:103B10003031323334353637383961626364656643
:103B20000000000030313233343536373839414205
:103B300043444546000000002DE9F04104460025BD
:103B40001E461746880404D405E039462020B047B5
:103B50006D1C641EF9D52846BDE8F0812DE9F041C1
:103B6000044600251E469046C80301D5302700E0D4
:103B70002027880404D505E041463846B0476D1C2F
:103B8000641EF9D52846BDE8F081000010B504494F
:103B9000044800F0C9F8044800F06AF810BD0000BD
:103BA000C8020020D40A0020E802002010B5044911
:103BB000044800F05BFA044800F05AF810BD000019
:103BC000FC020020E00A00202403002010B5074971
:103BD000074800F02FFB074800F04AF8064907485D
:103BE00000F028FB064800F043F810BD5802002002
:103BF000AC0A00208C02002068020020C00A0020CD
:103C0000B402002070B50546002411E00A4850F8BF
:103C1000240058B1084951F8241008682946FCF7D7
:103C200074FB18B9044850F8240070BD601CC4B27D
:103C3000082CEBDB0020F8E78C0A002070B5054665
:103C40002846FFF7DFFF044624B1606810B16068C2
:103C5000006810B94FF0FF3070BD207B28B9606854
:103C6000016820468847012020730020F4E7000007
:103C700070B504461CB1206808B1606810B94FF0F7
:103C8000FF3070BD002510E0124850F8250050B1FB
:103C9000104A52F8252021681068FCF736FB10B94D
:103CA0006FF00200EDE7681CC5B2082DECDB0021C7
:103CB0000AE0084850F8210020B9064840F82140A1
:103CC0000020DEE7481CC1B20829F2DB6FF00100DA
:103CD000D7E700008C0A002070B505460E4628463E
:103CE000FFF790FF044634B1606820B16068C06897
:103CF00008B1207B10B94FF0FF3070BD60683146CD
:103D0000C26820469047F8E770B50446A568284683
:103D10006968884770BD70B504460E46A56831468F
:103D20002846AA68904770BD0160024A4260024A74
:103D3000826070473D3D00086F3D000810B586B0B9
:103D400004462168486800F0C3F8142101A8FCF774
:103D5000D1FA20680089019001200290002004908F
:103D60002168486801A9FCF7E1FD06B010BD2DE906
:103D7000F04106460D46306800F049F8002419E08D
:103D800000202855002711E0306800F017F80128BE
:103D900005D1285D012101EB4000285504E0285D94
:103DA000002141EA40002855781CC7B2082FEBDB00
:103DB000601CC4B2052CE3DBBDE8F08170B504469D
:103DC00064220121204600F061F8002802DA4FF059
:103DD000FF3070BD232000F003F92189606800F0F6
:103DE00017F9054664220021204600F04FF800280C
:103DF00002DA4FF0FF30ECE72846EAE770B50446F8
:103E00000D4621892A46606800F00AF970BD10B598
:103E100004466068006820F440606168086060687B
:103E2000006840F480606168086000212046FFF768
:103E3000E5FF142000F0CEF801212046FFF7DEFF59
:103E40006068006820F440606168086064220021B6
:103E5000204600F01BF8002802DA4FF0FF3010BDBA
:103E600064220121204600F011F8002802DA4FF008
:103E7000FF30F4E764220021204600F007F8002814
:103E800002DA4FF0FF30EAE700BFE8E770B504461A
:103E90000D4616460AE02189606800F0B9F8A8428C
:103EA00001D1002070BD012000F09AF8301EA6F16B
:103EB0000106F0D1401EF5E713B50C460A23012296
:103EC00069460248FEF7D6F900981CBD480A002052
:103ED00008B5394988420FD100BF00210091374908
:103EE000096841F00101354A11601146096801F085
:103EF0000101009100BF5EE0314988420FD100BF4F
:103F0000002100912D49096841F002012B4A1160FE
:103F10001146096801F00201009100BF4BE02949F8
:103F200088420FD100BF002100912449096841F067
:103F30000401224A11601146096801F00401009150
:103F400000BF38E0204988420FD100BF0021009116
:103F50001A49096841F00801184A116011460968B8
:103F600001F00801009100BF25E0184988420FD1F7
:103F700000BF002100911149096841F010010F4A6A
:103F800011601146096801F01001009100BF12E0B4
:103F90000F4988420FD100BF0021009107490968ED
:103FA00041F02001054A11601146096801F0200125
:103FB000009100BF00BF08BD000002403038024041
:103FC0000004024000080240000C024000100240C1
:103FD0000014024010B504462046FCF793FC10BDC7
:103FE00010B5084B5968084B1B68084CB3FBF4F339
:103FF00003FB00F200BF034B5B685B1A9342FAD3EA
:1040000010BD0000001000E01802002040420F0028
:1040100070B504460D4629462046FCF781FD70BD6B
:104020002DE9F04106460F4615460DB1012400E08A
:104030000024224639463046FCF77AFDBDE8F0817F
:1040400070B50446A56828466968884770BD70B594
:1040500005460E46AC6816B92046A1688847206818
:1040600000F10E01284600F0BBF870BD0160024A65
:104070004260024A8260704781400008BD400008EB
:1040800010B586B0044621684868FFF721FF142167
:1040900001A8FCF72FF92068008901900020029008
:1040A0002168486801A9FCF741FC0020216888725A
:1040B000216808612168487306B010BD70B50446D8
:1040C000226811895068FFF7A3FF05462068C07A6F
:1040D00005280ED2DFE800F0030E264250002068CB
:1040E000807AA84205D101202168C8720020216889
:1040F000086171E02068807AA84205D0002021681C
:10410000C872216808610CE020680069401C2168C1
:104110000861032805D302202168C87200202168A5
:10412000086159E02068807AA84209D004202168FB
:10413000C8720020216808610220216808730CE021
:1041400020680069401C21680861642805D30320A9
:104150002168C8720020216808613DE02068807AEB
:10416000A84208D004202168C8720320216808737F
:104170000020216808612FE02068807AA84207D1DA
:104180002068007B2168C87200202168086122E055
:1041900020680069401C2168086103281BD320683F
:1041A000007B022802D0032808D103E00120216807
:1041B000487303E002202168487300BF00BF00205D
:1041C000216808612168C8722068407B2168887373
:1041D00000202168487300BF00BF2068807B70BD4D
:1041E00070B505460C46207828B1214628462A6934
:1041F00090470020207070BD70B50446A568284621
:104200006968884770BD70B506460C46B0680546BB
:104210001CB92846A96888470AE0012C03D1284622
:10422000E968884704E0032C02D1284629698847B9
:1042300070BD00000160044A4260044AC260044A42
:104240008260044A026170475942000895420008A2
:10425000C1420008FF42000810B586B0044621683C
:104260004868FFF735FE142101A8FCF743F82068E1
:104270000089019001200290002004902168486884
:1042800001A9FCF753FB2268D17A104600F02EF802
:1042900006B010BD10B504462068807A012807D109
:1042A0000021206800F022F800202168087306E051
:1042B0000121206800F01AF801202168087310BD60
:1042C00010B504462068807A012807D101212068B2
:1042D00000F00CF801202168087306E00021206836
:1042E00000F004F800202168087310BD70B5044682
:1042F0000D4621892A466068FFF792FE70BD10B511
:1043000004462068007B38B100212068FFF7EEFFEB
:1043100000202168087306E001212068FFF7E6FF0E
:1043200001202168087310BDFCF71AFCFEF78AFF14
:10433000FEF730F8FEF70AF8FFF748FC22A0FFF777
:104340007DFC23A0FFF77AFCFFF720FC22A0FFF7FB
:1043500075FCFFF72BFC22A0FFF770FC01211AA0CF
:10436000FFF7BAFC00F0A4F8054629461EA0FFF7A7
:10437000A5F9204800F0E8F8054629461EA0FFF7F9
:104380009DF920E04FF400711E48FBF7B3FF1D4874
:1043900000F0CAF8054603E01A4800F0C5F80546E3
:1043A000002DF9D1002405E01648015D16A0FFF7A5
:1043B00085F9641C0B2CF7DB0DA0FFF77FF94FF498
:1043C000FA60FCF79FFADDE76C65643100000000DD
:1043D000626565703100000064687431310000006E
:1043E0006B65793100000000616161613D25640DFC
:1043F0000A000000080000206161616120203D2565
:10440000640D0A003C0300202530325820000000D3
:1044100070B505460E4634780BA0FFF74FF9012220
:1044200021460CA02B68FFF749F9012C04D1032188
:1044300010A0FFF751FC05E0022C03D103210DA0D1
:10444000FFF74AFC70BD00006C616C616C610D0A85
:10445000000000006576743D25642053484F525497
:104460005F50524553533D2564206465763D257366
:104470000D0A00006C656431000000000A490968FB
:10448000096809B9012100E0002121B14FF0FF3195
:10449000064A116006E004490968C968C868034A09
:1044A0004168116070470000200200204C0200208B
:1044B00010B584211948FBF71DFF194817490860FA
:1044C0000021164841614FF40071C160002013497A
:1044D0004860762111488161002181600161FDF70A
:1044E0005FFA08B1012010BD4FF400610B48FCF7E2
:1044F000EDFF08B10220F6E700200A4908600748EE
:104500000068406820F0FF00044909684860012005
:104510000449A039C1F8A0000020E4E7EC0A00201B
:10452000002C0140A080254210B50446012340F62E
:10453000B83221460348FDF769FB08B1012010BDE0
:104540000020FCE7EC0A002070B5054600BF0A48D1
:10455000FDF706F90428FAD1012340F6B8322946BE
:104560000548FDF7FDFB044600BF0348FDF7F8F8DA
:104570000428FAD1E0B270BDEC0A002001460A69B5
:10458000D1E901309860D1E9010358605068884250
:1045900001D188685060002008611068401E1060DA
:1045A0001068704742684A6093688B6093685960EE
:1045B0009160086103685B1C036070471E480068D7
:1045C00018B101201D49086034E000201B49086033
:1045D0001B4801680CE051B900BF502080F31188DE
:1045E000BFF34F8FBFF36F8F00BF00BFFEE7491EC1
:1045F00001EB8100134A52F8200008B9012000E0C5
:1046000000200028E7D101EB81020E4B03EB820072
:1046100042685268426000F108024368934202D146
:104620004268526842604268D268074B1A60044888
:10463000016000BF704700005402002040020020CB
:1046400034020020840500201C02002010B500BFA9
:10465000502080F31188BFF34F8FBFF36F8F00BFDF
:1046600000F01EF818B14FF080500449086000BFF8
:10467000002080F3118800BF10BD000004ED00E0B1
:104680000549096809B9012005E00449096809B923
:10469000022000E000207047380200205402002071
:1046A0002DE9F0414FF000084348006800287BD115
:1046B00042480068451C4148056015BB40480068F9
:1046C000006808B9012000E0002050B900BF502068
:1046D00080F31188BFF34F8FBFF36F8F00BF00BF10
:1046E000FEE73748076837480068354908603548AD
:1046F000076035480068401C33490860FFF7BEFE7C
:1047000000BF3248006885423BD300BF2C48006898
:10471000006808B9012000E0002020B14FF0FF3010
:104720002A4908602CE026480068C068C4686668AA
:10473000B54202D22548066022E0201DFFF71EFF89
:10474000A06A18B104F11800FFF718FF2049E06AC9
:104750000968884202D91E49E06A0860E16A01EBF3
:1047600081011C4A02EB8100211DFFF71BFF1A4942
:10477000E06A0968C96A8842C8D34FF00108C5E7F2
:1047800000BF15480068C06A00EB8000114951F86D
:104790002000012801D94FF001081048006808B135
:1047A0004FF0010805E0FFE70D480068401C0C4988
:1047B00008604046BDE8F08154020020300200202D
:1047C0002002002024020020440200204C0200208D
:1047D00034020020840500201C020020400200203A
:1047E0003C02002000061016000610160000000013
:1047F0000000000001020304060708090000000091
:10480000010203046C656431000000006C656432D1
:104810000000000064687431310000006B6579317C
:104820000000000044480008000000203C03000095
:1048300088030008C04800083C030020F40C000076
:104840002437000881000BFF6602030405060708F1
:10485000091001FF32104201033D24F439441414BD
:10486000024012022A010C79104A041013F9418205
:10487000084B07420C130448140878021420AC0AB1
:1048800082200912281A0C281AA0289AC0283960F8
:104890002C100240118B093D34411A17101A1434A0
:1048A0001AD4340A11D43429F4818B41403C5A4F34
:1048B0000C1A1C3C1310035B20E03C4B1144180005
:040000050800018965
:00000001FF
