:020000040800F2
:10000000E00A002061020008B11400086F14000823
:10001000AD1400080B0400083F19000800000000A0
:10002000000000000000000000000000A101000826
:100030000F04000800000000FD010008B5140008CE
:100040007B0200087B0200087B0200087B0200089C
:100050007B0200087B0200087B0200087B0200088C
:100060007B0200087B0200087B0200087B0200087C
:100070007B0200087B0200087B0200087B0200086C
:100080007B0200087B0200087B0200087B0200085C
:100090007B0200087B0200087B0200087B0200084C
:1000A0007B0200087B0200087B0200087B0200083C
:1000B000991500087B0200087B0200087B020008FB
:1000C0007B0200087B0200087B0200087B0200081C
:1000D0007B0200087B0200087B0200087B0200080C
:1000E0007B0200087B0200087B0200087B020008FC
:1000F0007B0200087B0200087B0200087B020008EC
:100100007B0200087B0200087B0200087B020008DB
:100110007B0200087B0200087B0200087B020008CB
:100120007B0200087B0200087B0200087B020008BB
:100130007B0200087B0200087B0200087B020008AB
:100140007B0200087B0200087B0200087B0200089B
:100150007B0200087B0200087B0200087B0200088B
:100160007B0200087B0200087B0200087B0200087B
:100170007B0200087B0200087B02000800000000F0
:100180007B0200087B020008DFF810D000F000F9C5
:100190000048004711230008AFF30080E00A002068
:1001A0002C4B19680868B0E8F04F80F30988BFF35A
:1001B0006F8F4FF0000080F311887047000000003F
:1001C00008480068006880F308884FF0000080F35A
:1001D000148862B661B6BFF34F8FBFF36F8F00DF35
:1001E00000BF00BF08ED00E0DFF80C00016841F43B
:1001F00070010160704700BF88ED00E0EFF30980F7
:10020000BFF36F8F134B1A681EF0100F08BF20ED5D
:10021000108A20E9F04F106009B44FF0500080F3CD
:100220001188BFF34F8FBFF36F8F02F017F94FF0B4
:10023000000080F3118809BC19680868B0E8F04F25
:100240001EF0100F08BFB0EC108A80F30988BFF3CE
:100250006F8F704710000020EFF30580704700009B
:100260000648804706480047FEE7FEE7FEE7FEE750
:10027000FEE7FEE7FEE7FEE7FEE7FEE7851500087E
:10028000890100082DE9F05F0546002092469B4653
:1002900088460646814640241BE02846414647469C
:1002A000224600F065F853465A46C01A914110D3D1
:1002B00011461846224600F04CF82D1A67EB01084B
:1002C0004F4622460120002100F043F817EB0009B9
:1002D0004E41201EA4F10104DFDC484631462A4687
:1002E0004346BDE8F09FD2B201E000F8012B491E61
:1002F000FBD270470022F6E710B513460A460446C3
:100300001946FFF7F0FF204610BD10B5002200E0AF
:10031000521C835C8C5CA34201D1002BF8D1D8B273
:10032000E1B2401A10BD30B50B4601460020202234
:10033000012409E021FA02F59D4205D303FA02F5F2
:10034000491B04FA02F52844151EA2F10102F1DC52
:1003500030BD202A04DB203A00FA02F10020704769
:100360009140C2F1200320FA03F3194390407047F3
:10037000202A04DB203A21FA02F00021704721FAFA
:1003800002F3D040C2F12002914008431946704761
:10039000064C074D06E0E06840F0010394E80700D2
:1003A00098471034AC42F6D3FFF7F2FEBC260008A3
:1003B000DC26000870B58C1810F8015B15F00703F7
:1003C00001D110F8013B2A1106D110F8012B03E0EE
:1003D00010F8016B01F8016B5B1EF9D12B0705D4F6
:1003E0000023521E0DD401F8013BFAE710F8013B3F
:1003F000CB1A921C03E013F8015B01F8015B521E5B
:10040000F9D5A142D8D3002070BD00BFFEE77047E8
:1004100072B600BFFEE7000070B5044600F018F9A0
:1004200006462546681C10B104480078054400BF04
:1004300000F00EF9801BA842FAD370BD080000201E
:10044000F8B502460B460025002400200021D6E026
:10045000012606FA01F51E6806EA0504AC4274D1CD
:100460001E7906F00306012E04D01E7906F003065D
:10047000022E13D190684F000326BE40B0434F00B8
:10048000DE68BE4030439060506801268E40B04325
:100490001E79C6F300168E40304350601E7906F078
:1004A0000306032E09D0D0684F000326BE40B04398
:1004B0004F009E68BE403043D0601E7906F00306B0
:1004C000022E13D1CF0802F1200656F827004E075E
:1004D000F70E0F26BE40B0434F07FF0E1E69BE4009
:1004E0003043CF0802F1200646F8270010684F007D
:1004F0000326BE40B0431E7906F003064F00BE40FF
:10050000304310605E6806F44036002E76D000BF9F
:10051000002600963C4E366846F480463A4F3E60D0
:100520003E46366806F48046009600BF00BF374E50
:100530008F0856F827008E07370F0F26BE40B043AE
:10054000334EB24202D1002624E057E0314EB2428F
:1005500001D101261EE0304EB24201D1022619E03F
:100560002E4EB24201D1032614E02D4EB24201D1EB
:1005700004260FE02B4EB24201D105260AE02A4E96
:10058000B24201D1062605E0284EB24201D107262B
:1005900000E008268F073F0FBE4030431B4E8F08F8
:1005A00046F82700224E3068A0435E6806F48016A5
:1005B00006B120431E4E3060361D3068A0435E6891
:1005C00006F4001606B12043194E361D3060184E51
:1005D000361F3068A0435E6806F4003606B120433B
:1005E000134E361F3060361F3068A0435E6806F435
:1005F000803606B120430E4E083E3060491C10295B
:10060000FFF426AFF8BD000044380240083801402E
:10061000000002400004024000080240000C0240BA
:10062000001002400014024000180240001C02406A
:10063000083C0140024613690B400BB1012000E069
:10064000002070470AB1816101E00B0483617047AB
:10065000014800687047000000000020034800685F
:1006600003490978084401490860704700000020E8
:100670000800002010B50D48006840F400700B49D8
:1006800008600846006840F480600860084600681A
:1006900040F480700860032000F0DCF80F2000F0C8
:1006A00007F800F05FF8002010BD0000003C024099
:1006B0002DE9F04188B004460027B84600BF00206D
:1006C00001902448006840F0010022490860084673
:1006D000006800F00100019000BF00BF02A903A85C
:1006E00000F08EF9069F1FB900F0B2F9054602E04E
:1006F00000F0AEF945001848B5FBF0F0A0F1010894
:100700004FF080401549086040F2E7311348C1605E
:10071000C0F80480002101618160816100F060FC0B
:10072000064696B90D4800F08FFC06466EB91C20AF
:1007300000F042F8102C07D2002221461C2000F0C5
:100740004BF80748046000E00126304608B0BDE8D9
:10075000F08100004038024040420F00300100208C
:100760000400002008B500BF002000901148006878
:1007700040F480400F4908600846006800F480405B
:10078000009000BF00BF00BF00200090081F00685D
:1007900040F08050091F08600846006800F0805053
:1007A000009000BF00BF00220F21901E00F014F83F
:1007B00008BD00004438024001460846002809DB15
:1007C00000F01F0301229A4043099B0003F1E0233C
:1007D000C3F8002100BF70472DE9F05F80460D4649
:1007E0001646002701F0BEF8074639462A4633462A
:1007F00001F00700C0F1070ABAF1040F02D94FF067
:10080000040A01E0C0F1070AD14600F1040ABAF176
:10081000070F02D24FF0000A01E0A0F1030AD4460C
:100820004FF0010A0AFA09FAAAF1010A0AEA020AD1
:100830000AFA0CFA4FF0010B0BFA0CFBABF1010BAF
:100840000BEA030B4AEA0B042146404601F092F8FA
:10085000BDE8F09F00BF00F00702064B19684FF695
:10086000FF031940044B0B4343EA0221014B19607B
:1008700000BF70470CED00E00000FA0570B50446BB
:100880000D460CB9012070BD5848006800F0070003
:10089000A84209D255490D700846006800F00700CB
:1008A000A84201D00120EEE7207800F002000228E3
:1008B0001DD1207800F00400042805D14C480068C0
:1008C00040F4E0504A490860207800F00800082809
:1008D00005D14748006840F46040454908604448F5
:1008E000006820F0F000A1680843414908602078C2
:1008F00000F00100A8B36068012807D13C4808381F
:100900000068C0F34040B8B90120BCE76068022825
:1009100002D06068032807D1354808380068C0F362
:10092000406048B90120AEE7314808380068C0F39C
:10093000400008B90120A6E72D48006820F0030018
:10094000616808432A490860FFF782FE064609E00D
:10095000FFF77EFE801B41F28831884202D90320D6
:1009600091E707E02248006800F00C006168B0EBF6
:10097000810FEDD11D48006800F00700A84209D999
:100980001A490D700846006800F00700A84201D01F
:10099000012078E7207800F00400042807D11448EB
:1009A000006820F4E050E1680843114908602078AD
:1009B00000F00800082808D10D48006820F46040C5
:1009C000216940EAC1000A49086000F061F808495D
:1009D0000968C1F30311074A515CC8400649086021
:1009E00006480068FFF764FE00204CE7003C024028
:1009F00008380240842600080C0000200400002073
:100A00000F2202600D4A126802F0030242600B4A94
:100A1000126802F0F0028260084A126802F4E052A2
:100A2000C260064A126802F46042D2080261044AB7
:100A3000126802F007020A6070470000083802409E
:100A4000003C024001480068704700000C00002094
:100A500000B5FFF7F7FF04490968C1F38221034A93
:100A6000515CC84000BD00000838024094260008D0
:100A700000B5FFF7E7FF04490968C1F34231034AB3
:100A8000515CC84000BD00000838024094260008B0
:100A90002DE9F047002400250026A14625480068DE
:100AA00000F00C0020B1042805D008283AD105E058
:100AB000DFF8849039E0DFF8849036E01D48001FAD
:100AC000006800F03F041B48001F006800F480002D
:100AD00078B11A481749091F0968C1F38811A0FBAA
:100AE00001700146224600233846FFF7CBFB05463E
:100AF0000EE011480F49091F0968C1F38811A0FBD6
:100B000001700146224600233846FFF7BBFB05462D
:100B10000848001F0068C0F30140401C4600B5FBB8
:100B2000F6F902E0DFF8109000BF00BF4846BDE8CC
:100B3000F0870000083802400024F40040787D016E
:100B4000F8B504460CB90120F8BD207800F001008A
:100B5000002874D0F948006800F00C0004280DD07B
:100B6000F648006800F00C00082813D1F348001F75
:100B7000006800F48000B0F5800F0BD1EF48083812
:100B80000068C0F34040002859D06068002856D162
:100B90000120D9E700BF6068B0F5803F08D1E74881
:100BA0000838006840F48030E449083908601EE0E5
:100BB0006068B0F5A02F0DD1E0480838006840F417
:100BC0008020DE49083908600846006840F480301B
:100BD00008600CE0D9480838006820F48030D74914
:100BE000083908600846006820F48020086000BFCB
:100BF000606890B1FFF72CFD054606E0FFF728FD81
:100C0000401B642801D903209EE7CC4808380068BF
:100C1000C0F340400028F1D011E0FFF719FD054670
:100C200006E0FFF715FD401B642801D903208BE780
:100C3000C24808380068C0F340400028F1D120784D
:100C400000F0020002285FD1BC48006800F00C00F0
:100C500058B1BA48006800F00C0008281CD1B74809
:100C6000001F006800F48000B0B9B448083800687C
:100C7000C0F3400020B1E068012801D0012063E703
:100C8000AE480838006820F0F800216940EAC10049
:100C9000AA490839086037E0E06800B30120A84994
:100CA0000860FFF7D5FC054606E0FFF7D1FC401BC6
:100CB000022801D9032047E7A04808380068C0F39C
:100CC00040000028F1D09D480838006820F0F80066
:100CD000216940EAC10099490839086014E0002000
:100CE00097490860FFF7B4FC054606E0FFF7B0FC43
:100CF000401B022801D9032026E7904808380068E5
:100D0000C0F340000028F1D1207800F00800082846
:100D10002CD16069A8B101208A490860FFF798FCCE
:100D2000054606E0FFF794FC401B022801D903208A
:100D30000AE782486C300068C0F340000028F1D018
:100D400014E000207F490860FFF782FC054606E0BA
:100D5000FFF77EFC401B022801D90320F4E6774808
:100D60006C300068C0F340000028F1D1207800F01A
:100D70000400042870D1002770483830006800F063
:100D8000805090B900BF002000906C483830006857
:100D900040F080506949383108600846006800F02A
:100DA0008050009000BF00BF01276748006800F432
:100DB0008070B0B96448006840F48070624908608F
:100DC000FFF746FC054606E0FFF742FC401B022801
:100DD00001D90320B8E65C48006800F48070002860
:100DE000F2D000BFA068012808D1544868300068DC
:100DF00040F001005149683108601DE0A0680528F5
:100E00000DD14E486830006840F004004B4968310D
:100E100008600846006840F0010008600CE04748A0
:100E20006830006820F001004449683108600846D5
:100E3000006820F00400086000BFA068A8B1FFF7B8
:100E400007FC054609E0FFF703FC401B41F288312F
:100E5000884202D9032077E626E0384868300068E7
:100E6000C0F340000028EED013E0FFF7F1FB054689
:100E700008E0FFF7EDFB401B41F28831884201D9C1
:100E8000032061E62D4868300068C0F34000002868
:100E9000EFD1012F07D129483830006820F0805069
:100EA00026493831086000BFA069002845D0234892
:100EB000006800F00C0008285DD0A069022845D128
:100EC00000201F490866FFF7C3FB054606E0FFF751
:100ED000BFFB401B022801D9032035E6174808381C
:100EE0000068C0F340600028F1D1D4E9070108434D
:100EF000616A40EA81110122A06AC2EB500041EA16
:100F000000412C20005D41EA00600C49091F086087
:100F100001200B490866FFF79BFB054606E0FFF73B
:100F200097FB401B022801D903200DE6034808382F
:100F30000068C0F340600028F1D049E00838024062
:100F400000004742800E47420070004000202149C7
:100F50000866FFF77DFB054606E0FFF779FB401BBF
:100F6000022801D90320EFE51B480068C0F3406068
:100F70000028F2D12CE0A069012800D1E4E5164850
:100F8000001D0668A069012820D006F48001E069F0
:100F900081421BD106F03F01206A814216D147F6FB
:100FA000C0703040616AB0EB811F0FD106F4403150
:100FB0000122A06AC2EB5000B1EB004F06D106F04F
:100FC00070612C20005DB1EB006F01D00120BBE50A
:100FD0000020B9E5000047420038024070477047E2
:100FE00010B504460CB9012010BD94F83D0028B995
:100FF000002084F83C00204600F025F8022084F808
:101000003D00211D206800F0CFFA012084F8460041
:1010100000BF84F83E0001213F20015540200155CA
:101020004120015500BF00BF012084F84200432049
:101030000155442001554520015500BF012084F889
:101040003D000020D0E77047014691F83D0001289F
:1010500001D001207047022081F83D000868C06877
:1010600040F001000B68D8601A4B086898421BD00A
:101070000868B0F1804F17D0174B0868984213D01A
:10108000164B086898420FD0154B086898420BD051
:10109000144B0868984207D0134B0868984203D055
:1010A000124B086898420CD10868806800F007026B
:1010B000062A0CD00868006840F001000B68186030
:1010C00005E00868006840F001000B681860002027
:1010D000C0E700000000014000040040000800409C
:1010E000000C004000040140004001400018004096
:1010F000704710B5044620680069C0F34000D8B1BD
:101100002068C068C0F34000B0B16FF002002168F1
:101110000861012020772068806900F0030018B181
:101120002046FFF7E5FF05E0204600F0ADF8204639
:1011300000F0ABF80020207720680069C0F3800041
:10114000D8B12068C068C0F38000B0B16FF004006F
:1011500021680861022020772068806900F44070CF
:1011600018B12046FFF7C4FF05E0204600F08CF8D8
:10117000204600F08AF80020207720680069C0F33C
:10118000C000D8B12068C068C0F3C000B0B16FF033
:10119000080021680861042020772068C06900F0F9
:1011A000030018B12046FFF7A3FF05E0204600F03A
:1011B0006BF8204600F069F800202077206800696D
:1011C000C0F30010D8B12068C068C0F30010B0B1FF
:1011D0006FF0100021680861082020772068C0693E
:1011E00000F4407018B12046FFF782FF05E020466A
:1011F00000F04AF8204600F048F8002020772068E8
:10120000006900F0010058B12068C06800F00100DA
:1012100030B16FF0010021680861204600F036F817
:1012200020680069C0F3C01058B12068C068C0F3DE
:10123000C01030B16FF08000216808612046FFF7D0
:10124000CDFE20680069C0F3801058B12068C068E6
:10125000C0F3801030B16FF0400021680861204673
:1012600000F01DF820680069C0F3401058B12068F4
:10127000C068C0F3401030B16FF0200021680861F1
:101280002046FFF7ACFE10BD7047704710B504460E
:101290002068B0F1804F01D1FFF7E0F910BD704731
:1012A00010B504460CB9012010BDA06900B100E0E2
:1012B00000BF94F83D0028B9002084F83C00204687
:1012C00000F028F8242084F83D002068C06820F44D
:1012D00000502168C860204600F0D2F920680069FB
:1012E00020F49040216808612068406920F02A00BD
:1012F000216848612068C06840F400502168C860D7
:1013000000202064202084F83D0084F83E00002066
:10131000CAE7000010B586B00446142101A8FEF704
:10132000E9FF1B492068884230D100BF00200090AF
:101330001848006840F01000164908600846006828
:1013400000F01000009000BF00BF00BF0020009020
:1013500010481438006840F001000E491439086044
:101360000846006800F00100009000BF00BF4FF485
:10137000C06001900220029000200390032004909E
:101380000720059001A90448FFF75AF806B010BDE0
:101390000010014044380240000002402DE9F84F9F
:1013A00004460E46174699464FF0000A94F83D0051
:1013B00020285AD106B117B90120BDE8F88F00BF27
:1013C00094F83C00012801D10220F6E7012084F8BE
:1013D0003C0000BF00202064212084F83D00FFF77E
:1013E00037F98246A784E784A068B0F5805F04D10E
:1013F000206910B90025B04602E035464FF00008DC
:1014000000BF002084F83C0000BF1BE053460022D0
:1014100080212046CDF8009000F048FA08B1032062
:10142000CBE745B9B8F80000C0F308002168486070
:1014300008F1020803E02878216848606D1CE08C00
:10144000401EE084E08C0028E0D153460022402179
:101450002046CDF8009000F029FA08B10320ACE74F
:10146000202084F83D000020A7E70220A5E700BF68
:10147000FEE7000010B50B480B4908604FF4E1305F
:101480004860002108488160C16001610C21416110
:1014900000218161C161FFF703FF08B1FEF7B8FFCA
:1014A00010BD0000001001403C06002000BFFEE718
:1014B00000BFFEE710B54FF0E020006901F030F802
:1014C000012801D001F012F810BD000000B593B062
:1014D000302107A8FEF70EFF142102A8FEF70AFF2D
:1014E00000BF002001902548006840F0805023494B
:1014F00008600846006800F08050019000BF00BFFF
:1015000000BF002001901E48006840F480401C4944
:1015100008600846006800F48040019000BF00BFEA
:101520000220079001200A9010200B9002200D90BD
:1015300000210E9108210F91A821109102211191F3
:101540000421129107A8FFF7FBFA08B1FEF760FF2C
:101550000F20029002200390002004904FF4A0502E
:1015600005904FF480500690052102A8FFF786F9F8
:1015700008B1FEF74DFF13B000BD00004038024037
:10158000007000400348006840F4700001490860A2
:101590007047000088ED00E010B50248FFF7A9FD94
:1015A00010BD00003001002010B50268294B9842A0
:1015B0000ED0B0F1804F0BD0274B984208D0274B6C
:1015C000984205D0264B984202D0264B984203D130
:1015D00022F070024B681A431E4B984220D0B0F1A3
:1015E000804F1DD01C4B98421AD01C4B984217D0EC
:1015F0001B4B984214D01B4B984211D01A4B984267
:101600000ED01A4B98420BD0194B984208D0194B68
:10161000984205D0184B984202D0184B984203D1FB
:1016200022F44072CB681A4322F080034C6943EAEB
:10163000040202608B68C3620B688362054B9842A8
:1016400002D0084B984201D10B6903630123436127
:1016500010BD0000000001400004004000080040F0
:10166000000C0040000401400040014000440140E3
:101670000048014000180040001C004000200040CD
:101680002DE9F84F04462068006920F44050E168D5
:101690000843216808612169A0680843616908431B
:1016A000E169084300902068C06849F20C618843F2
:1016B000009908432168C8602068406920F44070A0
:1016C000A16908432168486176492068884203D0AF
:1016D00075492068884203D1FFF7CAF9814602E0C4
:1016E000FFF7B6F98146E069B0F5004F6CD10220F2
:1016F0006168A0FB015003461920A9FB0070014658
:101700002A463846FEF7BEFD6421B0FBF1F04FEAF1
:10171000001A02206168A0FB01510B461920A9FBA9
:1017200000712A463846FEF7ADFD83460220616807
:10173000A0FB015003461920A9FB00712A46384638
:10174000FEF7A0FD6421B0FBF1F000EBC00101EB5E
:101750000010ABEB8000322101EBC0006421B0FB34
:10176000F1F000F0F8000AEB400A02206168A0FBEB
:10177000015003461920A9FB007001462A4638464D
:10178000FEF780FD834602206168A0FB01500346FE
:101790001920A9FB00712A463846FEF773FD642123
:1017A000B0FBF1F000EBC00101EB0010ABEB8000EF
:1017B000322101EBC0006421B0FBF1F000F0070022
:1017C0005044216888606AE004206168A0FB0150F1
:1017D00003461920A9FB007001462A463846FEF749
:1017E00051FD824604206168A0FB01500346192088
:1017F000A9FB007001462A463846FEF743FD6421E6
:10180000B0FBF1F000EBC00101EB0010AAEB80008F
:10181000322101EB00106421B0FBF1F000F0F00A7E
:1018200004206168A0FB017003461920A9FB005148
:101830003A462846FEF726FD6421B0FBF1F00AEB9C
:10184000001A04206168A0FB01510B461920A9FB76
:1018500000712A463846FEF715FD8346042061686C
:10186000A0FB015003461920A9FB007001462A463F
:101870003846FEF707FD6421B0FBF1F000EBC00134
:1018800001EB0010ABEB8000322101EB0010642172
:10189000B0FBF1F000F00F00504421688860BDE813
:1018A000F88F000000100140001401402DE9F041C4
:1018B00004460D4617469846069E34E0701C88B3D1
:1018C0002EB1FEF7C5FEA0EB0800B0422BD900BF39
:1018D00000BF21680C3151E8001F21F4D07021684D
:1018E0000C3141E80002002AF3D100BF00BF00BF65
:1018F0002168143151E8001F21F0010021681431E2
:1019000041E80002002AF3D100BF202084F83D0006
:1019100084F83E0000BF002084F83C0000BF032094
:10192000BDE8F081FFE7206800682840A84201D1A7
:10193000012000E00020B842C0D00020F0E700BF46
:10194000FEE700000FB4054B10B503A9044A029846
:1019500000F034F810BC5DF814FB0000A11E000874
:101960002C01002002480068C0F3022070470000EC
:101970000CED00E010B5002804DB0A07130E054A41
:10198000135406E00A07140E034A00F00F031B1F4E
:10199000D45410BD00E400E018ED00E002E008C8F7
:1019A000121F08C1002AFAD170477047002001E0D9
:1019B00001C1121F002AFBD1704700002DE9FF4F23
:1019C0008BB09A460F460546002606E025280BD028
:1019D00052460D9990476D1C761C28780028F5D149
:1019E0000FB03046BDE8F08F0024A04601226049C8
:1019F00000E0044315F8013F203B02FA03F00842DF
:101A0000F7D128782E2817D115F8010F44F00404D7
:101A10002A280ED06FF02F022878A0F13001092972
:101A20000AD808EB880102EB410100EB01086D1CAC
:101A3000F2E757F8048B6D1C287869283ED006DC45
:101A40000028CDD063280BD0642804D136E0732859
:101A500010D075284BD052460D999047761C85E0E2
:101A600017F8040B8DF8000000208DF80100E946FE
:101A7000012003E057F8049B4FF0FF3061074FF05F
:101A8000000401D40AE0641C44450DDA8442FADB08
:101A900019F804100029F6D106E0641C8442FCDB2E
:101AA00019F804100029F8D1264404E019F8010BB4
:101AB00052460D999047641EF8D257E001CF4FF07F
:101AC0000A0B002802DA40422D2102E0210504D54C
:101AD0002B218DF82410012103E0E10705D02021FE
:101AE000F7E70DF1200908910CE00021F9E701CF9B
:101AF0004FF00A0BF9E75946FEF715FC01F13002E9
:101B000009F8012D0028F6D1ADEB090000F1200BFA
:101B1000600701D44FF00108D84502DDA8EB0B00A7
:101B200000E000208046002406E009A85246005D3F
:101B30000D999047641C761C08988442F5DB04E0FC
:101B4000302052460D999047761CB8F10001A8F15B
:101B50000108F5DC05E019F8010B52460D99904794
:101B6000761CBBF10001ABF1010BF4DC6D1C34E71A
:101B70000928010010B50449044800F0C9F80448D8
:101B800000F06AF810BD0000BC000020C80600206C
:101B9000DC00002010B50449044800F05BFA04485A
:101BA00000F05AF810BD0000F0000020D40600201C
:101BB0001801002010B50749074800F02FFB07481F
:101BC00000F04AF80649074800F028FB064800F0F4
:101BD00043F810BD4C000020A0060020800000202B
:101BE0005C000020B4060020A800002070B5054667
:101BF000002411E00A4850F8240058B1084951F86F
:101C0000241008682946FEF780FB18B9044850F8EC
:101C1000240070BD601CC4B2082CEBDB0020F8E788
:101C20008006002070B505462846FFF7DFFF044612
:101C300024B1606810B16068006810B94FF0FF30DF
:101C400070BD207B28B96068016820468847012064
:101C500020730020F4E7000070B504461CB1206832
:101C600008B1606810B94FF0FF3070BD002510E07A
:101C7000124850F8250050B1104A52F8252021682A
:101C80001068FEF742FB10B96FF00200EDE7681C28
:101C9000C5B2082DECDB00210AE0084850F821000D
:101CA00020B9064840F821400020DEE7481CC1B2B8
:101CB0000829F2DB6FF00100D7E700008006002062
:101CC00070B505460E462846FFF790FF044634B12E
:101CD000606820B16068C06808B1207B10B94FF01F
:101CE000FF3070BD60683146C26820469047F8E713
:101CF00070B50446A56828466968884770BD70B508
:101D000004460E46A56831462846AA68904770BD2D
:101D10000160024A4260024A82607047251D000845
:101D2000571D000810B586B004462168486800F0C9
:101D3000C3F8142101A8FEF7DDFA2068008901909C
:101D400001200290002004902168486801A9FEF754
:101D500077FB06B010BD2DE9F04106460D46306810
:101D600000F049F8002419E000202855002711E070
:101D7000306800F017F8012805D1285D012101EB3A
:101D80004000285504E0285D002141EA4000285524
:101D9000781CC7B2082FEBDB601CC4B2052CE3DB58
:101DA000BDE8F08170B5044664220121204600F0B0
:101DB00061F8002802DA4FF0FF3070BD232000F0F8
:101DC00003F92189606800F017F9054664220021B3
:101DD000204600F04FF8002802DA4FF0FF30ECE721
:101DE0002846EAE770B504460D4621892A46606810
:101DF00000F00AF970BD10B504466068006820F470
:101E00004060616808606068006840F480606168F4
:101E1000086000212046FFF7E5FF142000F0CEF80F
:101E200001212046FFF7DEFF6068006820F4406073
:101E30006168086064220021204600F01BF8002839
:101E400002DA4FF0FF3010BD64220121204600F07D
:101E500011F8002802DA4FF0FF30F4E76422002185
:101E6000204600F007F8002802DA4FF0FF30EAE7DA
:101E700000BFE8E770B504460D4616460AE0218922
:101E8000606800F0B9F8A84201D1002070BD0120BF
:101E900000F09AF8301EA6F10106F0D1401EF5E7D9
:101EA00013B50C460A23012269460248FFF776FA69
:101EB00000981CBD3C06002008B5394988420FD166
:101EC00000BF002100913749096841F00101354AFE
:101ED00011601146096801F00101009100BF5EE048
:101EE000314988420FD100BF002100912D49096876
:101EF00041F002012B4A11601146096801F002010C
:101F0000009100BF4BE0294988420FD100BF00215A
:101F100000912449096841F00401224A11601146E8
:101F2000096801F00401009100BF38E020498842AF
:101F30000FD100BF002100911A49096841F0080142
:101F4000184A11601146096801F00801009100BFAC
:101F500025E0184988420FD100BF002100911149A6
:101F6000096841F010010F4A11601146096801F03B
:101F70001001009100BF12E00F4988420FD100BF4D
:101F8000002100910749096841F02001054A1160CC
:101F90001146096801F02001009100BF00BF08BD93
:101FA00000000240303802400004024000080240B5
:101FB000000C0240001002400014024010B504461C
:101FC0002046FEF729FA10BD10B5084B5968084B9A
:101FD0001B68084CB3FBF4F303FB00F200BF034B98
:101FE0005B685B1A9342FAD310BD0000001000E05A
:101FF0000C00002040420F0070B504460D462946F3
:102000002046FEF717FB70BD2DE9F04106460F464E
:1020100015460DB1012400E0002422463946304621
:10202000FEF710FBBDE8F08170B50446A5682846B0
:102030006968884770BD70B505460E46AC6816B92C
:102040002046A1688847206800F10E01284600F06C
:10205000BBF870BD0160024A4260024A826070476C
:1020600069200008A520000810B586B00446216844
:102070004868FFF721FF142101A8FEF73BF920680B
:1020800000890190002002902168486801A9FEF7AC
:10209000D7F9002021688872216808612168487397
:1020A00006B010BD70B50446226811895068FFF76C
:1020B000A3FF05462068C07A05280ED2DFE800F0AD
:1020C000030E264250002068807AA84205D10120E4
:1020D0002168C87200202168086171E02068807A58
:1020E000A84205D000202168C872216808610CE070
:1020F00020680069401C21680861032805D302207C
:102100002168C87200202168086159E02068807A3F
:10211000A84209D004202168C87200202168086103
:102120000220216808730CE020680069401C2168C7
:102130000861642805D303202168C8720020216843
:1021400008613DE02068807AA84208D00420216818
:10215000C8720320216808730020216808612FE0FD
:102160002068807AA84207D12068007B2168C87265
:1021700000202168086122E020680069401C216875
:10218000086103281BD32068007B022802D00328A3
:1021900008D103E001202168487303E00220216890
:1021A000487300BF00BF0020216808612168C87221
:1021B0002068407B2168887300202168487300BF35
:1021C00000BF2068807B70BD70B505460C46207846
:1021D00028B1214628462A6990470020207070BD0A
:1021E00070B50446A56828466968884770BD70B513
:1021F00006460C46B06805461CB92846A9688847BB
:102200000AE0012C03D12846E968884704E0032C42
:1022100002D128462969884770BD00000160044A40
:102220004260044AC260044A8260044A0261704704
:10223000412200087D220008A9220008E7220008A8
:1022400010B586B0044621684868FFF735FE1421B2
:1022500001A8FEF74FF82068008901900120029044
:10226000002004902168486801A9FEF7E9F8226877
:10227000D17A104600F02EF806B010BD10B5044615
:102280002068807A012807D10021206800F022F818
:1022900000202168087306E00121206800F01AF888
:1022A00001202168087310BD10B504462068807AAB
:1022B000012807D10121206800F00CF801202168D5
:1022C000087306E00021206800F004F8002021686F
:1022D000087310BD70B504460D4621892A46606812
:1022E000FFF792FE70BD10B504462068007B38B140
:1022F00000212068FFF7EEFF00202168087306E048
:1023000001212068FFF7E6FF01202168087310BD56
:10231000FEF7B0F9FFF7DAF8FFF7ACF8FFF74AFC81
:102320000EA0FFF77FFC0FA0FFF77CFCFFF722FC5D
:102330000EA0FFF777FCFFF72DFC0EA0FFF772FC55
:10234000012106A0FFF7BCFC06E0002109A0FFF771
:10235000B7FC0A20FEF760F8F7E700006C6564310F
:10236000000000006265657031000000646874312F
:10237000310000006B6579310000000070B5054642
:102380000E4634780BA0FFF7DDFA012221460CA09F
:102390002B68FFF7D7FA012C04D1032110A0FFF717
:1023A0008FFC05E0022C03D103210DA0FFF788FC70
:1023B00070BD00006C616C616C610D0A0000000072
:1023C0006576743D25642053484F52545F50524502
:1023D00053533D2564206465763D25730D0A000046
:1023E0006C656431000000000A490968096809B990
:1023F000012100E0002121B14FF0FF31064A1160B8
:1024000006E004490968C968C868034A4168116060
:1024100070470000140000204000002001460A69B7
:10242000D1E901309860D1E90103586050688842D1
:1024300001D188685060002008611068401E10605B
:102440001068704742684A6093688B60936859606F
:102450009160086103685B1C036070471E48006858
:1024600018B101201D49086034E000201B490860B4
:102470001B4801680CE051B900BF502080F311885F
:10248000BFF34F8FBFF36F8F00BF00BFFEE7491E42
:1024900001EB8100134A52F8200008B9012000E046
:1024A00000200028E7D101EB81020E4B03EB8200F4
:1024B00042685268426000F108024368934202D1C8
:1024C0004268526842604268D268074B1A6004480A
:1024D000016000BF70470000480000203400002069
:1024E00028000020780100201000002010B500BF57
:1024F000502080F31188BFF34F8FBFF36F8F00BF61
:1025000000F01EF818B14FF080500449086000BF79
:10251000002080F3118800BF10BD000004ED00E032
:102520000549096809B9012005E00449096809B9A4
:10253000022000E0002070472C000020480000200E
:102540002DE9F0414FF000084348006800287BD196
:1025500042480068451C4148056015BB404800687A
:10256000006808B9012000E0002050B900BF5020E9
:1025700080F31188BFF34F8FBFF36F8F00BF00BF91
:10258000FEE737480768374800683549086035482E
:10259000076035480068401C33490860FFF724FF96
:1025A00000BF3248006885423BD300BF2C4800681A
:1025B000006808B9012000E0002020B14FF0FF3092
:1025C0002A4908602CE026480068C068C46866682C
:1025D000B54202D22548066022E0201DFFF71EFF0B
:1025E000A06A18B104F11800FFF718FF2049E06A4B
:1025F0000968884202D91E49E06A0860E16A01EB75
:1026000081011C4A02EB8100211DFFF71BFF1A49C3
:10261000E06A0968C96A8842C8D34FF00108C5E773
:1026200000BF15480068C06A00EB8000114951F8EE
:102630002000012801D94FF001081048006808B1B6
:102640004FF0010805E0FFE70D480068401C0C4909
:1026500008604046BDE8F0814800002024000020CA
:102660001400002018000020380000204000002046
:1026700028000020780100201000002034000020F5
:1026800030000020000000000000000001020304F0
:102690000607080900000000010203046C656431AC
:1026A000000000006C656432000000006468743152
:1026B000310000006B65793100000000DC26000865
:1026C0000000002030010000B40300084827000883
:1026D00030010020B0090000AC190008413210425E
:1026E00001033D24F439441414024012022A010C5F
:1026F00079104A041013E12182085AEF0C139C262A
:1027000023086C1420A00682200912281AA4281A73
:1027100094289AB42839602C100240118BF11C3493
:10272000411AFF101AAC341AC8340A11C83429F4FB
:10273000818B29203C5A370C1AB43C1304015B20CE
:08274000D43C4B7D231800007E
:040000050800018965
:00000001FF
